:020000040800F2
:1000000000080020292F0008B10B0008B30B0008DE
:1000100000000000000000000000000000000000E0
:10002000000000000000000000000000B50B000808
:100030000000000000000000B70B0008B90B00082A
:10004000A92F0008A92F0008A92F0008A92F000830
:10005000C10B0008A92F0008A92F0008C30B000836
:1000600000000000A92F0008A92F0008A92F0008F0
:10007000A92F0008A92F000800000000D10B0008DC
:100080000000000000000000000000000000000070
:10009000A92F00080000000000000000A92F0008A0
:1000A00000000000A92F0008000000000000000070
:1000B000A92F0008A92F0008000000000000000080
:1000C000002243088B4274D303098B425FD3030A97
:1000D0008B4244D3030B8B4228D3030C8B420DD3AA
:1000E000FF22090212BA030C8B4202D31212090238
:1000F00065D0030B8B4219D300E0090AC30B8B4276
:1001000001D3CB03C01A5241830B8B4201D38B0323
:10011000C01A5241430B8B4201D34B03C01A5241C8
:10012000030B8B4201D30B03C01A5241C30A8B420B
:1001300001D3CB02C01A5241830A8B4201D38B02F6
:10014000C01A5241430A8B4201D34B02C01A52419A
:10015000030A8B4201D30B02C01A5241CDD2C3090C
:100160008B4201D3CB01C01A524183098B4201D388
:100170008B01C01A524143098B4201D34B01C01A73
:10018000524103098B4201D30B01C01A5241C308EB
:100190008B4201D3CB00C01A524183088B4201D35A
:1001A0008B00C01A524143088B4201D34B00C01A46
:1001B0005241411A00D20146524110467047FFE7B2
:1001C00001B5002000F0F0F802BDC0460029F7D0CC
:1001D00076E7704703460B437FD4002243088B42E7
:1001E00074D303098B425FD3030A8B4244D3030BBE
:1001F0008B4228D3030C8B420DD3FF22090212BA83
:10020000030C8B4202D31212090265D0030B8B42FE
:1002100019D300E0090AC30B8B4201D3CB03C01AE8
:100220005241830B8B4201D38B03C01A5241430BC3
:100230008B4201D34B03C01A5241030B8B4201D3B3
:100240000B03C01A5241C30A8B4201D3CB02C01A1E
:100250005241830A8B4201D38B02C01A5241430A96
:100260008B4201D34B02C01A5241030A8B4201D385
:100270000B02C01A5241CDD2C3098B4201D3CB012C
:10028000C01A524183098B4201D38B01C01A5241DB
:1002900043098B4201D34B01C01A524103098B42DF
:1002A00001D30B01C01A5241C3088B4201D3CB00CA
:1002B000C01A524183088B4201D38B00C01A5241AD
:1002C00043088B4201D34B00C01A5241411A00D25D
:1002D00001465241104670475DE0CA0F00D04942C6
:1002E000031000D34042534000229C4603098B4236
:1002F0002DD3030A8B4212D3FC22890112BA030ABE
:100300008B420CD3890192118B4208D3890192113F
:100310008B4204D389013AD0921100E08909C309C4
:100320008B4201D3CB01C01A524183098B4201D3C6
:100330008B01C01A524143098B4201D34B01C01AB1
:10034000524103098B4201D30B01C01A5241C30829
:100350008B4201D3CB00C01A524183088B4201D398
:100360008B00C01A5241D9D243088B4201D34B00B3
:10037000C01A5241411A00D20146634652415B10F5
:10038000104601D34042002B00D5494270476346D6
:100390005B1000D3404201B5002000F005F802BD1B
:1003A0000029F8D016E770477047C046002B11D1DE
:1003B000002A0FD1002900D1002802D00021C94312
:1003C000080007B4024802A14018029003BDC046CD
:1003D000D9FFFFFF03B4684601B5029802F040FE62
:1003E000019B9E4602B00CBC7047C04610B5002968
:1003F00003D100F007F8203002E0080000F002F816
:1004000010BDC0461C2101231B04984201D3000CDF
:1004100010391B0A984201D3000A08391B09984277
:1004200001D30009043902A2105C40187047C0468D
:1004300004030202010101010000000000000000AD
:1004400010B5064C2378002B07D1054B002B02D0AA
:10045000044800E000BF0123237010BD0C00002001
:1004600000000000F8310008044B10B5002B03D049
:100470000349044800E000BF10BDC0460000000072
:1004800010000020F8310008F0B5C64600B588B06D
:100490001422002103A802F088FD294BD96A042206
:1004A0001143D962D96A0A400092009ADA6A01259A
:1004B0002A43DA62DA6A2A400192019AD96A022250
:1004C0001143D962DB6A1A400292029B8024E40144
:1004D0001C4B984600222100180001F02FFC1A4FF7
:1004E000A026F60500223900300001F027FC039415
:1004F000049500240594069403A9404601F066FB88
:10050000039704950594069403A9300001F05EFB5F
:100510008023DB00039388235B030493059403A9E2
:10052000300001F053FB00220021072001F0A6FC5F
:10053000072001F0A7FC08B080BCB846F0BDC0465B
:1005400000100240000800501342000010B5A02423
:10055000E40501220121200001F0F0FB012202212B
:10056000200001F0EBFB10BD10B5A024E405002233
:100570000121200001F0E2FB00220221200001F015
:10058000DDFB10BD70B505000C0000F02FFE134A16
:100590001278002A11D0124A1268821AAA4200D296
:1005A00070BD0E4A002111700D4A1060803100228A
:1005B000C9010C4801F0C2FBF2E7094A1268821A2D
:1005C000A242EDD3054A01211170054A10607F3126
:1005D0000122C901034801F0B1FBE1E7340000202A
:1005E000300000200008005010B5FFF7AFFF642076
:1005F00000F002FE8021A024E405012289002000F1
:1006000001F09CFB01221021200001F097FB10BD9E
:1006100010B58021A024E40500228900200001F00B
:100620008DFB00221021200001F088FBFFF79CFFCA
:1006300010BD0000014B01221A707047000000201D
:1006400072B6FEE700B583B008220021684602F0CA
:10065000ACFC2948294B03600023C363C022120667
:100660004260836007228263063A0261C3602021F0
:100670004254013143548362C221FF3141629639B1
:10068000FF39435428394161036383614263C36185
:1006900001F0D2FC002824D1194B009380235B0188
:1006A00001931548694601F079FE00281BD1154BCE
:1006B00000931148694601F071FE002815D1124BD4
:1006C00000930D48694601F069FE00280FD10F4BD9
:1006D00000930948694601F061FE002809D103B082
:1006E00000BDFFF7ADFFFFF7ABFFFFF7A9FFFFF777
:1006F000A7FFFFF7A5FFC0466801002000240140C6
:1007000020000014400000188000001C000002447B
:1007100010B50B480B4B0360E1235B0243600023E1
:100720008360C36003610C2242618361C361036221
:10073000436202F0E3F9002800D110BDFFF780FF0B
:10074000480000200044004010B50D480D4B0360E8
:1007500082235B00436000238360C36003614361C5
:10076000802292008261C361036243628362073325
:10077000C36202F0A1FA002800D110BDFFF760FFAC
:10078000100100200030014000B587B01022002188
:1007900002A802F00AFC08220021684602F005FCCB
:1007A00016488023DB050360FA23DB004360002347
:1007B0008360FA229200C26003618033436100F0DB
:1007C00037FB002813D180235B0102930B4802A959
:1007D00000F07EFB00280CD1002300930193074812
:1007E000694600F08FFC002805D107B000BDFFF777
:1007F00027FFFFF725FFFFF723FFC046D0000020AB
:1008000000B599B0342200210BA802F0CEFB1422CF
:10081000002106A802F0C9FB18220021684602F058
:10082000C4FB1A490A681A4B1A4080231B01134360
:100830000B6010230B930F3B119300231293A02204
:100840001202139214930BA800F050FD002817D148
:100850000F23069300230793089309930A9300211B
:1008600006A800F0D1FF00280CD10223009300233A
:100870000293684601F0DAF8002805D119B000BDEE
:10088000FFF7DEFEFFF7DCFEFFF7DAFE0070004048
:10089000FFE7FFFFF0B5C64600B584B000F086FC68
:1008A000FFF7AEFFFFF7F0FDFFF7CCFEFFF730FFDD
:1008B000FFF74AFFFFF768FF9E48002101F0CCFDDB
:1008C0009D4800F0D9FA39E0FFF7A2FE9B4B1A8849
:1008D0009B4BD3189BB29B498B4203D89A4B012266
:1008E0001A7026E0FA239B009A4202D2964B052208
:1008F0001A708025ED01A024E405002229002000C3
:1009000001F01CFA914964234B709148022202F0D5
:1009100032FA01222900200001F010FAFA204000EA
:100920000100FFF72FFE04E0FFF75EFE864B022278
:100930001A70884B1B78002B00D0D8E07D4C20002B
:1009400001F070FC6421200001F0BEFC200001F0E9
:1009500021FD814D28806421200001F0B5FC20009C
:1009600001F018FD7D4E30806421200001F0ACFCC8
:10097000200001F00FFD7A4F38806421200001F043
:10098000A3FC200001F006FD764B9846188020005D
:1009900001F078FC434619889620C003FFF71AFC43
:1009A000714B18800004040C2A886243D3171B057E
:1009B0001B0D9B181B136D4858436D49FFF70AFC2C
:1009C00085B25E4B1D803A886243D3171B051B0D11
:1009D0009B181B13674858436749FFF7FBFB674B9E
:1009E000188033885C43E3171B051B0D1C19241367
:1009F0006001001B80000019C000C3218900FFF7BF
:100A0000E9FB5F4B18805F4B9D4202D94E4B04229D
:100A10001A704D4B1A78052A65D893005A4AD35854
:100A20009F46E12189006420FFF7ACFD434B1A8803
:100A3000564B9A4203D8444B00221A7079E7504B28
:100A40001B88C72B0ED8524B1B880A2B0AD9464B42
:100A50001A88504B9A4205D94D4B00221A803A4BC6
:100A600003321A708025ED01A024E405002229003C
:100A7000200001F063F9354964234B703448643336
:100A8000022202F078F901222900200001F056F933
:100A90003F4A1388013313804BE7FFF7B9FD2A4B18
:100AA00005221A7045E764216420FFF76BFDFFF70C
:100AB000AFFD224B1A88384B9A4200D939E7224BB6
:100AC00000221A7035E780210022C901334801F065
:100AD00035F900F0A3FB0121012001F043F91A4B85
:100AE00000221A7025E7184B00221A7021E7194BD3
:100AF00000221A7001A902230B7008334B700F4BB0
:100B00001B881A0A8A70CB701C4B1B881A0A0A7140
:100B10004B711B4B1B881A0A8A71CB71124B1B88B5
:100B20001A0A0A724B721E4864230A2201F005FF5A
:100B300004E7C04668010020D00000203C000020EF
:100B400077ECFFFF66420000280000202C00002008
:100B5000100100200000002046000020440000207A
:100B600042000020400000203E000020BC6D030039
:100B70005C12000058150100983A00003A0000206D
:100B800038000020F05500001032000887130000E4
:100B900036000020280A0000EF5500000008005031
:100BA0004800002010B5FFF72BFE00F03FFB10BD02
:100BB000FEE7FEE77047704710B500F00BFB10BD75
:100BC000704710B58020C00001F0BEF810BD0000D5
:100BD00010B5024800F004FA10BDC046D000002055
:100BE00010B5094B5A6B01210A435A63996B802255
:100BF00052050A439A6300220021042001F03EF9C5
:100C0000042001F03FF910BD0010024010B586B07D
:100C100004001422002101A802F0C7F922680E4B3B
:100C20009A4201D006B010BD0C4B596B8022920045
:100C30000A435A63D96A01221143D962DB6A1A4016
:100C40000092009BE0230193DD3B0293A02001A9C9
:100C5000C00500F0BBFFE5E70024014000100240A2
:100C600030B589B004001422002103A802F09DF9D8
:100C70002268194B9A4201D009B030BD174B596B0D
:100C8000802252010A435A63DA6A02242243DA625A
:100C9000DA6A22400192019AD96A01221143D9628B
:100CA000DB6A13400293029B039404940325069588
:100CB000079203A90A4800F089FF80239B01039350
:100CC000049400230593069505330793A02003A9F8
:100CD000C00500F07BFFCFE700300140001002406C
:100CE0000004005010B502688023DB059A4200D052
:100CF00010BD074A936B01210B439363002200212F
:100D00000F2001F0BBF80F2001F0BCF8F0E7C0465F
:100D10000010024010B586B004001422002101A882
:100D200002F043F922680E4B9A4201D006B010BD82
:100D30000C4B996B802292020A439A63D96A022271
:100D40001143D962DB6A13400093009BC0230193D7
:100D50000292BD3B049301A9034800F037FFE5E789
:100D6000004400400010024000040050036880224C
:100D7000D205904202D00F4A904203D17022934391
:100D80004A6813438022D205904202D0094A904219
:100D900003D1094A1340CA681343802293430A6966
:100DA000134303608B68C3620B6883620123436152
:100DB0007047C04600080140FFFCFFFF30B5036AE2
:100DC000046A0125AC4304628469EF35AC43120127
:100DD00022430A24A3430B438261036230BD000017
:100DE00030B5036A1024A34303628469036A054D86
:100DF0002C4012032243A024A3430901194382611A
:100E0000016230BDFF0FFFFF8368702293430B43E5
:100E1000693A13438360704730B58468034D2C40B2
:100E20001B0213430B432343836030BDFF00FFFFCE
:100E300070B5041E1ED03923C35C002B14D0392595
:100E400002236355210001C9FFF790FF01233E22D1
:100E5000A354043AA3540132A3540132A3540132DF
:100E6000A3546355002070BD38330022C254FFF7ED
:100E700039FFE4E70120F6E73923C35C012B20D1D9
:100E800038330222C2540268D36801210B43D36075
:100E900003688022D205934208D00C4A934205D0C1
:100EA0001A6801210A431A6000200BE099680722A2
:100EB0000A40062A07D01A6801210A431A60002056
:100EC00000E0012070470020FCE7C0460008014018
:100ED00010B5040008003823E35C012B00D177E053
:100EE00038230122E25401330132E254226893682C
:100EF00038490B409360016860294FD029D84029B8
:100F000057D00CD9502922D14168C2682068FFF718
:100F100055FF20685021FFF777FF002005E02029CA
:100F20000ED009D930290BD0012039230122E254F7
:100F3000013B0022E25410BD002901D0102904D148
:100F40002068FFF761FF0020EFE70120EDE70120B7
:100F5000EBE780225201914236D0802292019142E9
:100F60000DD181684268C3682068FFF755FF226889
:100F700091688023DB010B4393600020D5E7702943
:100F800024D181684268C3682068FFF745FF226862
:100F9000936877210B4393600020C6E74168C268DD
:100FA0002068FFF71DFF20686021FFF72DFF00205C
:100FB000BBE74168C2682068FFF700FF2068402156
:100FC000FFF722FF0020B0E70020AEE70120ACE7EA
:100FD0000220B0E78800FFFF7047704770477047F6
:100FE00010B50400026813699B070FD5D3689B07EF
:100FF0000CD503235B4213610433037603689B69BA
:101000009B0755D0FFF7E9FF002323762268136979
:101010005B0712D5D3685B070FD505235B421361CD
:101020000733237623689A69C0239B001A4245D070
:101030002000FFF7D2FF00232376226813691B07E5
:1010400010D5D3681B070DD509235B4213610D33FF
:1010500023762368DB699B0737D02000FFF7BDFFAD
:101060000023237622681369DB0612D5D368DB06DA
:101070000FD511235B421361193323762368DA6994
:10108000C0239B001A4227D02000FFF7A6FF0023B1
:10109000237622681369DB0702D5D368DB0722D4E5
:1010A000226813695B0602D5D3685B0622D410BDA3
:1010B000FFF792FF2000FFF791FFA5E72000FFF761
:1010C0008BFF2000FFF78AFFB5E72000FFF784FFC2
:1010D0002000FFF783FFC3E72000FFF77DFF20001C
:1010E000FFF77CFFD3E702235B4213612000FFF789
:1010F000A1FAD5E741235B4213612000FFF76FFFA0
:10110000D5E7000030B53823C35C012B22D038234B
:101110000122C25401330132C25403685C689D68E5
:101120006E3294430A6822435A6003688022D205D3
:10113000934202D0084A934204D1802295434A68E0
:101140002A439A6039230122C254013B0022C2542F
:10115000002030BD0220FCE70008014010B504006B
:101160000F4B1978FA208000FEF7AAFF01000D4B03
:101170001868FEF7A5FF00F091FE00280DD1032CA2
:1011800001D901200AE0013000222100404200F094
:1011900075FE054B1C60002000E0012010BDC0461C
:1011A00001000020080000200400002010B5084ABB
:1011B000136840210B4313600320FFF7CFFF041E89
:1011C00002D00124200010BDFFF70AFDFAE7C04657
:1011D00000200240034A1168034B1B785B18136020
:1011E0007047C046C401002001000020014B186870
:1011F0007047C046C401002070B50400FFF7F6FF39
:101200000500631C02D0044B1B78E418FFF7EEFFC7
:10121000401BA042FAD370BD01000020024A1368AF
:1012200002218B431360704710E000E0024A13680C
:1012300002210B431360704710E000E010B5264B0D
:10124000DA680C231340082B42D00C2B11D0042B4E
:1012500009D0214B5A68520B0723134001338020D9
:101260000002984010BD1C4B1B68DB0632D51B48A2
:10127000F8E7910C0F230B401949C85C920D03232A
:101280001A40541C144BDB68DB0309D5154A0023B4
:10129000002101F0B7FE22000023FFF787F8E1E705
:1012A0000D4B1B68DB0609D50C4A0023002101F019
:1012B000A9FE22000023FFF779F8D3E70A4A0023AA
:1012C000002101F09FFE22000023FFF76FF8C9E71D
:1012D0000448C7E70448C5E70010024000093D0084
:1012E0002832000800127A000024F400F0B583B020
:1012F000041E00D165E2C54BDA680C251540DE6896
:1013000080235B021E400368DB0736D5082D2CD0F6
:101310000C2D28D0636880225202934255D0A0221F
:10132000D202934258D0B94B1A68B9490A401A60A0
:101330001A68802149020A400192019A1A68B54947
:101340000A401A606368002B52D0FFF74FFF070076
:10135000AE4B1B689B0310D4FFF748FFC01B6428EB
:10136000F6D903202EE2002ED4D0A84B1B689B0395
:1013700003D56368002B00D126E223689B076DD557
:10138000E3689A0605D5A148026820210A43026055
:101390008B43042D3CD00C2D38D0002B00D1B0E075
:1013A0009A490A680920824313430B60FFF71EFF26
:1013B0000600964B1B685B0700D599E0FFF716FF08
:1013C000801B0228F5D90320FCE1904A1168802394
:1013D0005B020B431360B5E78C4B19688022D20285
:1013E0000A431A601968802252020A431A60A9E768
:1013F000FFF7FCFE0700854B1B689B03BDD5FFF77D
:10140000F5FEC01B6428F6D90320DBE1002EC4D111
:101410007E4A1268520702D5002B00D1D6E17B4EDE
:1014200072687D490A40216909020A437260326884
:1014300009218A4313433360FFF700FFF268120962
:101440000F231340754AD35CD840754B1860754B19
:101450001868FFF783FE002800D0B3E12368DB069D
:101460002DD5002D60D1694B1B689B0503D5A36961
:10147000002B00D1ACE1654A53686B490B40216AEF
:101480000B43536053681B021B0AE16909060B43B7
:101490005360216A490B013180231B028B40D168C4
:1014A00009090F220A405D498A5CD3405C4A1360F7
:1014B0005C4B1868FFF752FE002800D082E12368D9
:1014C0001B077DD56369002B67D0504A136D01213E
:1014D0000B431365FFF78AFE06004C4B1B6D9B0701
:1014E0006ED4FFF783FE801B0228F6D9032069E142
:1014F00046494B68484A13402269120213434B6025
:10150000ACE7424A136801218B431360FFF76EFE7C
:1015100006003E4B1B685B07A0D5FFF767FE801BEC
:101520000228F6D903204DE1A369002B22D0374AC7
:10153000116880235B000B431360FFF757FE060022
:10154000324B1B689B0506D4FFF750FE801B022818
:10155000F6D9032036E12D4A536833490B40216AFE
:101560000B43536053681B021B0AE16909060B43D6
:101570005360A4E7254A13682C490B401360FFF71A
:1015800035FE0600214B1B689B0598D5FFF72EFE04
:10159000801B0228F6D9032014E11C4A136D012197
:1015A0008B431365FFF722FE0600184B1B6D9B074C
:1015B00006D5FFF71BFE801B0228F6D9032001E1A8
:1015C00023685B0700D48EE0104B9B6BDB001BD4C1
:1015D0000E4A916B80235B050B4393630126144BEA
:1015E0001B68DB0528D5A36880225200934237D0C0
:1015F000002B4DD1054B1A6D0C490A401A651A6D26
:101600000C490A401A6531E00026E8E70010024064
:10161000FFFFFEFFFFFFFBFFFFE0FFFF3C32000884
:101620000800002004000020FF1FFFFFFFFEFFFF57
:1016300000700040FFFBFFFF6B4A116880235B00D6
:101640000B431360FFF7D2FD0700674B1B68DB05F8
:10165000C9D4FFF7CBFDC01B6428F6D90320B1E045
:10166000624A116D80235B000B431365A368002B56
:1016700028D0FFF7BBFD07005C4B1B6D9B0530D4EA
:10168000FFF7B4FDC01B5A4B9842F5D9032099E0EF
:10169000A022D200934209D0544B1A6D55490A40FA
:1016A0001A651A6D54490A401A65DFE74F4B196DE8
:1016B000013AFF3A0A431A65196D802252000A4323
:1016C0001A65D3E7FFF792FD0700484B1B6D9B059A
:1016D00007D5FFF78BFDC01B454B9842F5D903207A
:1016E00070E0012E1AD0636A002B00D172E00C2D3D
:1016F0004FD0022B18D03D4A136840490B4013606D
:10170000FFF774FD0400394B1B689B013FD5FFF7C1
:101710006DFD001B0228F6D9032053E0334A936B7A
:1017200037490B409363DEE7304A136833490B4077
:101730001360FFF75BFD05002C4B1B689B0106D572
:10174000FFF754FD401B0228F6D903203AE0274951
:10175000CB682C4A1340A26AE06A0243206B024322
:101760001343CB600A6880235B0413430B60FFF7CD
:101770003DFD04001D4B1B689B0106D4FFF736FDA1
:10178000001B0228F6D903201CE000201AE00020EC
:1017900018E0012B20D0154BDA6880235B02134040
:1017A000A16A8B421AD1F0239B031340E16A8B425A
:1017B00016D1C0231B041A40236B9A4212D1002079
:1017C00000E0012003B0F0BD0120FBE70120F9E7B4
:1017D0000120F7E70020F5E70120F3E70120F1E71A
:1017E0000120EFE70120EDE700700040001002400B
:1017F00088130000FFFEFFFFFFFBFFFFFFFFFFFE60
:10180000FFFFFFEFFFFF02FF70B505000C0000288F
:1018100000D1D1E06A4B1A68012313408B4219D3DF
:101820002B689B0706D5674AD368F0218B43A968CC
:101830000B43D3602B68DB077BD56B68022B20D072
:10184000032B40D0012B44D05E4A126892051DD470
:10185000012099E05A4A136801218B432343136006
:10186000FFF7C4FC0600564B1A6801231340A3423D
:10187000D6D0FFF7BBFC801B534A9042F3D903201C
:1018800082E0504A1268920300D497E04D49CA683A
:10189000032082431343CB60FFF7A8FC06006B686C
:1018A000022B1CD0032B28D0012B34D0454BDB68F6
:1018B0000C221A423DD0FFF799FC801B424B984204
:1018C000F4D9032060E03F4A12689201DED401207F
:1018D0005AE03C4A12685207D8D4012054E0394BF0
:1018E000DA680C231340082B23D0FFF77FFC801B02
:1018F000354A9042F3D9032046E0324BDA680C2394
:1019000013400C2B15D0FFF771FC801B2E4B984217
:10191000F3D9032038E02B4BDA680C231340042B57
:1019200007D0FFF763FC801B274B9842F3D90320B5
:101930002AE0234B1A6801231340A34225D82B68C1
:101940005B0706D51F4AD36820490B40E9680B4363
:10195000D3602B681B0707D51A49CB681C4A134074
:101960002A69D2001343CB60FFF768FC154BDA6895
:1019700012090F231340174AD35CD840164B186046
:10198000164B1868FFF7EAFB70BD0D4A136801217A
:101990008B4323431360FFF729FC0600084B1A68AA
:1019A00001231340A342CAD0FFF720FC801B064B43
:1019B0009842F3D90320E7E70120E5E70120E3E7B8
:1019C000002002400010024088130000FFF8FFFFD3
:1019D000FFC7FFFF3C320008080000200400002081
:1019E000014B18687047C0460800002010B5FFF78B
:1019F000F7FF044BDA68120A07231340024AD35C4C
:101A0000D84010BD001002403432000810B5FFF776
:101A1000E7FF044BDA68D20A07231340024AD35C7B
:101A2000D84010BD001002403432000870B50400E8
:101A300003689B064ED55B4B9B6BDB0074D4594A05
:101A4000916B80235B050B4393630126564B1B6808
:101A5000DB056BD5534B1B6862685340C02189037B
:101A60000B4205D0C0239B0211001940994271D04E
:101A70004C4B196DC0239B0208001840194215D029
:101A80001A40824212D023689B060FD5454B1A6D2F
:101A9000464911401D6D8020000328431865186DCC
:101AA000434D284018651965D20559D423689B0613
:101AB0000ED56368C02292021900114091425ED097
:101AC00038490B6D6268C0208002024013430B65E9
:101AD000012E5ED023689B0706D5324AD36C0C21B9
:101AE0008B43A1680B43D36423685B0706D52D4A5B
:101AF000D36C30490B40E1680B43D36423681B0768
:101B000006D5284AD36C2C490B4021690B43D3647A
:101B100023681B0643D5234AD36C28490B406169CF
:101B20000B43D36400203BE000268FE71E4A116878
:101B300080235B000B431360FFF758FB05001A4B33
:101B40001B68DB0586D4FFF751FB401B6428F6D9E0
:101B5000032025E0134B1B689B0389D501201FE060
:101B6000FFF744FB05000F4B1B6D9B059ED4FFF751
:101B70003DFB401B124B9842F5D9032010E0094968
:101B80000A6810480240C0208003034013430B60E2
:101B900096E7044A936B0C490B4093639AE7002045
:101BA00070BDC0460010024000700040FFFFFCFF07
:101BB000FFFFF7FFFFF3FFFFFFCFFFFFFFFFF3FF85
:101BC00088130000FFFFCFFFFFFFFFEFF0B50023FA
:101BD00056E086685F000324BC40A643CC68BC4046
:101BE00034438460446894434E683609012232408D
:101BF0009A402243426053E0DE080836B600375868
:101C000005321A4092000F249440A7430C69944077
:101C100022003A43325056E0022600E00026A64059
:101C200034003C43023292003F4E94513F4A976841
:101C3000EA433E00AE434C68E40201D53E002E4329
:101C40003A4CA660E7683E0016404C68A40201D5F5
:101C50003E002E43354CE66067683E0016404C68F7
:101C6000A40301D53E002E43304C66602668324006
:101C70004C68E40301D52A0032432C4C2260013326
:101C80000C682200DA404DD001229A402500154010
:101C90001442F4D04E6803243440013C012C98D9FE
:101CA0004C6803222240032A08D0C4685E00032245
:101CB000B24094438A68B2402243C2604C68032217
:101CC0002240022A98D004685E0003221700B74021
:101CD000BC434F683A40B240224302604C68C02285
:101CE00092021442CBD0124C626B012632436263E3
:101CF0009A08941CA4000C4EA75903241C40A4006D
:101D00000F26A640B743A026F605B04286D0094E5E
:101D1000B04205D0084EB04200D17DE706267EE7EE
:101D200001267CE7F0BDC0460000014000040140F0
:101D3000001002400004005000080050002A01D0AA
:101D4000816170478162FCE710B5054B5B69184201
:101D500000D110BD024B5861FEF724FFF9E7C046E1
:101D60000004014070B502001A4B1D6880208000FD
:101D70002C000440184B1E6A01233340054206D054
:101D8000002B04D0134D2868144E30402860114DAC
:101D900028680326B04310432860114802690425CF
:101DA0002A430261012912D040BF20BF20BF0C4945
:101DB0000A69042082430A61002C07D0002B05D059
:101DC000044A116880239B000B43136070BD30BF31
:101DD000EDE7C0460070004000000140FFFDFFFF3E
:101DE00000ED00E070B5002811DB8308134DC0330F
:101DF0009B005C5903221040C000FC321600864054
:101E0000B44389010A40824022435A5170BD0F23D6
:101E10000340083B9B0806339B00094A94466344F1
:101E20005C6803221040C000FC3215008540AC43C2
:101E300089010A40824022435A60E7E700E100E05E
:101E400000ED00E0013880235B0498420FD2094A7C
:101E500050600948036A1B021B0AC02109060B4394
:101E60000362002393600733136000207047012052
:101E7000FCE7C04610E000E000ED00E010B5FFF721
:101E8000B1FF10BD002805DB1F2202400123934053
:101E9000014A13607047C04600E100E010B5FFF74B
:101EA000D1FF10BD7047000010B582B00400084B90
:101EB00018680849FEF704F94443019402E0019BC5
:101EC000013B0193019B002BF9D102B010BDC0462C
:101ED0000800002040420F0070B5040002689368BB
:101EE0005B0725D593685B0706D593689B0703D4EA
:101EF000936810210B439360FFF778F9050023687E
:101F00009B685B0712D5FFF771F9401B0A28F6D9C9
:101F100023689B685B07F2D5636D102213436365EA
:101F2000A36D0F3A1343A365012002E0002000E0F7
:101F3000002070BD70B504000268916803230B4057
:101F4000012B01D0002070BD1368DB0731D59168EB
:101F500005230B40012B09D0436D10221343436529
:101F6000836D0F3A134383650120ECE793680221E8
:101F70000B439360036803221A60FFF737F90500EB
:101F800023689B68DB0712D5FFF730F9401B0A284E
:101F9000F6D923689B68DB07F2D5636D10221343E3
:101FA0006365A36D0F3A1343A3650120CBE70020BF
:101FB000C9E70020C7E7000070B504000268916817
:101FC00003230B40012B0DD091681A4B19420ED000
:101FD000636D102213436365A36D0F3A1343A3652A
:101FE000012070BD1368DB07EED50020F9E7936888
:101FF00001210B4393600120FFF756FFFFF7F6F82E
:10200000050023681B68DB0712D4FFF7EFF8401BBD
:102010000A28F6D923681B68DB07F2D4636D102207
:1020200013436365A36D0F3A1343A3650120D8E7FB
:102030000020D6E71700008070B5041E00D1E2E052
:10204000436D002B30D0636DDB0633D423689A6870
:1020500004210D00154011422CD1626D6B490A40DC
:102060000631FF310A436265996803220A40012A5A
:1020700029D06268C02109068A4228D08021C9057A
:102080008A4224D0802109068A4220D01A6992000F
:1020900092081A615E4B1A685E490A401A601A6813
:1020A00061680A431A601BE0836550228354FEF77F
:1020B000ADFDC8E7636D1022134363655023002212
:1020C000E254012070BD1A68D20713D4D1E71A690F
:1020D000920092081A612268136961680B431361C8
:1020E0002268D36818218B43D3602268D368A16823
:1020F0000B43D360464B1A6847490A401A601A6876
:10210000616B49060A431A6023689A68D20004D4B6
:102110009968802252050A439A602268D3683F4931
:102120000B40D3602068C268E368216902292DD082
:102130002B432021615C49030B432C21615C490046
:102140000B43216B0B43A16989030B43E169C9036D
:102150000B431343C360636AC222FF32934205D02C
:102160002168CA68A06A03431343CB602123E35C60
:10217000012B0DD0E36B012B1ED022681369DB0706
:102180002DD5136901218B43136128E00425CFE786
:102190001F33E35C002B06D12268D16880235B02E9
:1021A0000B43D360E6E7636D202213436365A36DA1
:1021B0001F3A1343A365DDE72268136918490B40F2
:1021C000136121680A69236C606C0343A06C0343AC
:1021D00013430B612268136901210B4313612268C9
:1021E000536907218B43536122685369A16B0B43E9
:1021F00053610023A365636D03229343023A1343A3
:10220000636500205EE701205CE7C046FDFEFFFF3E
:1022100008270140FFFFC3FFFFFFFFFD1902FEFF7C
:1022200003FCFFFF10B5040003689B685B0723D421
:102230005023C35C012B21D050230122C254C36917
:10224000012B14D10020626D0D4B1A4080235B00DE
:10225000134363650023A3655022A3542368343AD3
:102260001A602268936804210B43936010BDFFF746
:10227000A3FE0028FAD1E6E70220F7E70220F5E7FF
:10228000FEF0FFFF10B504005023C35C012B17D0F4
:1022900050230122C254FFF71FFE002803D0502311
:1022A0000022E25410BD2000FFF744FE0028F6D1C2
:1022B000636D044A13400432FF3213436365EEE753
:1022C0000220EFE7FEFEFFFFF8B504000E004769AD
:1022D000082F04D00368DB68DB0718D40C27FEF74F
:1022E00085FF050023681A6817421FD1731CF9D0B7
:1022F000002E15D123681B681F42F3D1636D0422A1
:102300001343636550230022E254032034E0436DFD
:1023100020221343436550230022C25401202BE0A6
:10232000FEF764FF401BB042DCD9E3E7616D802219
:1023300092000A436265D968C0221201114214D189
:102340002022A25C002A10D11A6812070DD59A68C3
:10235000520712D45A680C218A435A60636D0C4AA2
:1023600013400432FF3213436365A369002B0DD180
:1023700023680C221A600020F8BD636D20221343ED
:102380006365A36D1F3A1343A365EEE70020F3E7EF
:10239000FEFEFFFF0368186C7047000070B5040074
:1023A0000D005023C35C012B4BD050230122C2549B
:1023B00003689A6852071AD44968234A914229D07F
:1023C000996A2A685203520B0A439A622B685B038C
:1023D00016D42B689B0305D51C4A11688023DB03A8
:1023E0000B43136050230022E254002070BD436D64
:1023F00020221343436550230022C2540120F5E7F5
:10240000124A116880231B040B4313600A20FFF754
:102410004BFDDEE7996A2A685203520B9143996299
:102420002B685B0304D5094A136809490B40136004
:102430002B689B03D6D5054A136806490B401360E9
:10244000D0E70220D2E7C046011000000827014073
:10245000FFFF7FFFFFFFBFFF70B504005023C35C89
:10246000012B4DD050230122C254036899680232D7
:102470000A40012A08D11A68D20705D5436D2022E7
:1024800013434365012037E0626D1E490A4006315F
:10249000FF310A436265DE6801310E40DA688A4323
:1024A000DA602268916880231B060B439360FEF775
:1024B0009DFE050023689A68002A13DAFEF796FE4F
:1024C000401B0A28F6D923689B68002BF2DA636D5B
:1024D00012229343023A1343636550230022E254CD
:1024E00001200CE0DA683243DA60636D0322934323
:1024F000023A13436365002050230022E25470BD6A
:102500000220FCE7FDFEFFFF10B5EFF3108C012267
:1025100082F3108801680B68124C23400B608CF327
:102520001088EFF3108C82F3108801688B68934356
:102530008B608CF31088036E012B06D08023202241
:10254000C25000230366836610BDEFF3108183F34E
:102550001088026813683234FF34A343136081F398
:102560001088EBE7DFFEFFFFD0B504000168836849
:102570000269134342691343C26913430A688448DA
:10258000024013430B602268536882490B40E168A4
:102590000B435360A16922687F4B9A4201D0236AA2
:1025A000194393687D4803400B43936022687C4B3A
:1025B0009A4212D0784B9A4220D0102376498A4210
:1025C00042D0E06980221202904279D0082B00D9D3
:1025D000D8E09B00734AD3589F46734BD96C0C23A9
:1025E0000B40082B22D005D8002B21D0042BE5D09E
:1025F0001023E3E70C2B1DD1043BDFE76A4BDB6CB8
:10260000C02109010B40802109018B4214D007D859
:10261000002B13D08021C9008B4211D10423CDE7B8
:10262000C02109018B420DD10823C7E70223C5E76A
:102630000023C3E71023C1E70223BFE70023BDE760
:102640001023BBE71023B9E7042B34D00BD8002BA1
:102650002BD0022B05D1544B1B68DB062ED45348DC
:1026600005E001206DE0082B1DD18020000262688A
:1026700053009B18834200D978E01303834200D2B1
:1026800076E0070E060250080021801979410023E8
:10269000FDF78CFE464BC218464B9A426AD8236817
:1026A000D86000204DE001204BE0FFF79FF90028A3
:1026B000DDD1002045E0FEF7C1FDF8E73E48D6E752
:1026C000082B59D89B003D4AD3589F46FFF78EF9F7
:1026D000002853D0400061684B08C018FDF7F0FC9B
:1026E0000200103A364B9A424AD882B20F239A43DC
:1026F0004008083B034013432268D360002020E0D9
:10270000FFF784F9E4E7284B1B68DB0604D427486D
:10271000E0E7FEF793FDDBE72748DBE7FFF766F925
:10272000002831D061684B081818FDF7C9FC020079
:10273000103A234B9A4229D823680004000CD86031
:1027400000200023A366E366D0BDFFF75FF9E7E74B
:10275000154B1B68DB0607D41448E3E7FEF76EFD54
:10276000DEE780200002DDE71348DBE70120E8E731
:102770000120E6E70120E4E70120E2E70020E0E7AE
:102780000120DEE70120DCE70020DAE70120D8E7BE
:10279000F369FFEFFFCFFFFF00480040FFF4FFFFAA
:1027A000004400404C320008001002400024F400B5
:1027B00000FDFFFFFFFC0F0000093D007032000824
:1027C000EFFF0000436ADB0706D5026853682C4917
:1027D0000B40816A0B435360436A9B0706D502682E
:1027E000536828490B40C16A0B435360436A5B0737
:1027F00006D50268536824490B40016B0B435360B4
:10280000436A1B0706D50268536820490B40416B99
:102810000B435360436ADB0606D5026893681C4984
:102820000B40816B0B439360436A9B0606D502689D
:10283000936818490B40C16B0B439360436A5B0676
:102840000BD50268536814490B40016C0B4353606D
:10285000026C80235B039A420AD0436A1B0606D5AA
:10286000026853680D490B40816C0B4353607047FD
:10287000026853680A490B40416C0B435360ECE714
:10288000FFFFFDFFFFFFFEFFFFFFFBFFFF7FFFFFDF
:10289000FFEFFFFFFFDFFFFFFFFFEFFFFFFFF7FF90
:1028A000FFFF9FFFF8B5CE46474680B506000D00F6
:1028B00017009946089B98463368DC692C40641BD6
:1028C00063425C41BC422FD143460133F4D0FEF752
:1028D0008DFC4B46C01A40452BD84346002B2AD0CE
:1028E00033681A685207E7D5DA69120710D4DA6933
:1028F0001205E1D5802212011A623000FFF704FEB2
:1029000084232022F2500C3B0022F25403200CE0DE
:1029100008241C623000FFF7F7FD8423F4500C3BC1
:102920000022F254012000E00020C0BCB946B046AD
:10293000F8BD0320F9E70320F7E7F0B5C64600B578
:1029400082B004000D0090461E00C36F202B62D1A0
:10295000002965D0002A65D0826880235B019A42F5
:1029600004D10369002B01D1CB075DD4842300225D
:10297000E250633BE367FEF739FC07005023424611
:10298000E2520233E252A26880235B019A4202D0F3
:102990000023984617E02369002B29D0002398468E
:1029A00011E02023E367032036E043461B882268BA
:1029B000DB05DB0D936202239C46E0445223E25A7E
:1029C000013A92B2E2525223E35A9BB2002B12D048
:1029D00000963B00002280212000FFF763FF0028C3
:1029E000DFD1002DE1D02A7823689A620135E5E72E
:1029F000A8460025E7E700963B0000224021200082
:102A0000FFF750FF002802D12023E36704E02023D2
:102A1000E367032000E0022002B080BCB846F0BDAE
:102A20000120F9E70120F7E70120F5E730B583B091
:102A3000040084230022C250FEF7D8FB050023685F
:102A40001B681B070FD423681B685B0729D420234E
:102A5000E3678022A350002323666366083AA354E9
:102A6000002003B030BD8021224B009303000022E0
:102A700089032000FFF716FF0028E4D0EFF3108150
:102A8000012383F310882268136880208343136036
:102A900081F310882023E36758330022E2547D3805
:102AA000DFE78021134B00932B000022C903200095
:102AB000FFF7F8FE0028CAD0EFF31080012282F35E
:102AC000108821680B680C4D2B400B6080F3108838
:102AD000EFF3108082F3108821688B6893438B603A
:102AE00080F3108880231F32E250083B0022E2541A
:102AF0000320B6E7FFFFFF01DFFEFFFF10B5041E56
:102B00002ED0C36F002B21D02423E36722681368E3
:102B100001218B4313602000FFF726FD012814D00C
:102B2000636A002B18D1226853680E490B4053602A
:102B3000226893682A218B4393602268136829399D
:102B40000B4313602000FFF771FF10BD78330022A4
:102B5000C254FEF7DFF8D7E72000FFF733FEE2E7C5
:102B60000120F2E7FFB7FFFFF0B5D6464F464646D5
:102B7000C0B582B006000D0090461F00FEF736FB80
:102B80000A9B181A8146B944FEF730FB82462C4B4B
:102B90001B685B011B0D4A465343019333689C68D5
:102BA0002C40641B63425C41444542D07B1CF5D001
:102BB000FEF71CFB5346C01A484508D2019A002A6A
:102BC00000D04A46019B013B01939146E6E73268FB
:102BD0005368E0218B435360726882235B009A4202
:102BE0000CD0B26A80239B019A4216D05123012255
:102BF000F254013B0022F25403201BE0B368802210
:102C00001202934203D08022D2009342E9D132686B
:102C1000136840218B431360E3E732681368094966
:102C20000B4013603268116880239B010B431360D3
:102C3000DCE7002002B0E0BCBA46B146A846F0BDD1
:102C400008000020FFDFFFFF70B584B004000D0016
:102C50001600174B18681749FDF732FA43011B1A83
:102C60009B001818C0000390626882235B009A42A0
:102C70000BD0039B002B17D0039B013B03932368CE
:102C80009B681B06F5D400200FE000962B00002265
:102C900080212000FFF768FF002806D0636D202206
:102CA00013436365032000E0002004B070BDC046FC
:102CB0000800002000366E0170B5041E59D0436A2A
:102CC000002B07D142680533FF339A4205D0002319
:102CD000C36102E00023036143610023A362513317
:102CE000E35C002B3ED051220221A15420680368EE
:102CF0004025AB4303606368822040000340A06826
:102D000084252D0228400343E06880252D012840BA
:102D10000343206901400B436169012001400B43DB
:102D2000A1698025AD0029400B43E5693821294080
:102D30000B43256A802129400B43A16A8025AD0100
:102D4000294025680B432B60618B04230B40656A87
:102D50001021294025680B436B6000236365A05454
:102D6000002070BD50330022E2542000FDF778FFB0
:102D7000B9E70120F5E7F0B5CE4600B584B0040010
:102D8000019191461D005023C35C012B00D1C9E085
:102D900050230122C254FEF729FA06005123E35CB6
:102DA000DFB2012B00D0B4E00199002900D1B1E0DD
:102DB0004B46002B00D1ADE051230322E254002307
:102DC000636521634A46A286E286A363A387E387FD
:102DD00063642364A26880231B029A421ED0226887
:102DE00013685B0603D4136840210B431360E26849
:102DF00080231B019A421DD06368002B02D04B46F2
:102E0000012B53D1226B236812781A73236B013381
:102E10002363E38E013B9BB2E38647E0226813689D
:102E200040218B431360226811688023DB010B4330
:102E30001360D4E76368002B02D04B46012B14D1FA
:102E4000226B23681288DA60236B02332363E38EDC
:102E5000013B9BB2E38608E0FEF7C8F9801BA8425D
:102E600001D36B1C14D1002D12D0E38E9BB2002B2A
:102E700034D0226893689B07EED5236B1B88D36000
:102E8000236B02332363E38E013B9BB2E386ECE7C3
:102E900051230122E25403273CE0FEF7A7F9801BEF
:102EA000A84201D36B1C14D1002D12D0E18E89B23F
:102EB000002913D0226893689B07EED5236B1B78FB
:102EC0001373236B01332363E18E013989B2E186E9
:102ED000ECE751230122E25403271BE032002900D2
:102EE0002000FFF7B1FE002801D020236365A3680E
:102EF000002B06D103932368DA6803929B6803933F
:102F0000039B636D002B05D151330122E25400274E
:102F100000E0022750230022E254380004B080BCB5
:102F2000B946F0BD0227F8E713488546FEF7BAFF19
:102F300012480168090E124A914205D111481249FE
:102F4000016012481249016012481349134A0023D4
:102F500002E0D458C4500433C4188C42F9D3104A48
:102F6000104C002301E013600432A242FBD300F0B6
:102F700025F8FDF78FFCFEE70008002004000000A4
:102F80001F0000003410024001000000000001405A
:102F900000000000000000200C000020A432000807
:102FA0000C000020C8010020FEE7030082189342B5
:102FB00000D1704719700133F9E7000070B50026A1
:102FC0000C4C0D4D641BA410A64209D1002600F044
:102FD00013F90A4C0A4D641BA410A64205D170BD1A
:102FE000B300EB5898470136EEE7B300EB5898472B
:102FF0000136F2E79C3200089C320008A03200083B
:103000009C320008F0B5CE469946030C9C4613044A
:1030100047461B0C1D000E0061460404240C80B5BD
:103020000700100C4B436543414360432C0CC01810
:1030300024188C46A34203D980235B029846C444DB
:10304000494679435643230C2D042D0C89196344BA
:1030500024046019C918C0BCB946B046F0BDC046CA
:10306000F0B557464E464546DE46E0B504000D0035
:103070009246994683B08B4230D82DD0494650466F
:10308000FDF7B4F9290006002000FDF7AFF9331A67
:103090009846203B34D49B4653465A46934042467A
:1030A0001F00534693401E00AF423BD8AF4200D1B1
:1030B00079E05B46A41BBD41002B00DA76E00022DC
:1030C00000230092019301235A4693400193012368
:1030D00042469340009329E08242CFD90022002348
:1030E000009201930C9B002B01D01C605D60009846
:1030F000019903B0F0BCBB46B246A946A046F0BD5C
:1031000042469B4620239B1A5246DA404146130012
:103110004A468A40170042461F43534693401E00CA
:10312000AF42C3D900220023009201934346002BF3
:10313000D8D0FB0772081A4346467B080EE0AB4224
:1031400001D1A2420CD8A41A9D41012024196D413D
:103150000021013E24184D41002E06D0AB42EED98D
:10316000013E24196D41002EF8D1009801995B466B
:1031700000196941002B24DB2B005A464446D340FA
:103180002A00E2401C005B461500002B2ADB2600CB
:103190009E40330026004746BE403200801A9941C7
:1031A000009001919EE7A342BCD882E742462023CB
:1031B00000219B1A0022009101920122DA40019223
:1031C00085E7424620239B1A2A0046469A40230060
:1031D000F340444613432A00E2401C005B461500BE
:1031E000002BD4DA42462F002023260097409B1A5A
:1031F000DE403B003343CDE7F8B5C046F8BC08BC21
:103200009E467047F8B5C046F8BC08BC9E4670475D
:10321000C808000828090008220A00089A0A0008BD
:10322000A60A0008C60A0008030406080C101820A5
:103230003000000000000000010203040000000054
:103240000000000001020304060708091C2700080B
:103250004A27000850270008842700085C27000838
:1032600084270008842700088427000862270008B4
:10327000CC26000800270008062700087827000849
:103280001227000878270008782700087827000808
:04329000D426000838
:08329400CCFDFF7F01000000EA
:04329C0069040008B9
:0432A00041040008DD
:0C32A400010100000400000000002000F8
:0400000508002F2997
:00000001FF
