:020000040800F2
:1000000000080020493000085D0E00085F0E00085F
:1000100000000000000000000000000000000000E0
:10002000000000000000000000000000610E000859
:100030000000000000000000630E0008650E0008CC
:10004000C9300008C9300008C9300008C9300008AC
:100050006D0E0008C9300008C93000086F0E000896
:1000600000000000C9300008C9300008C93000088D
:10007000C9300008C9300008000000007D0E0008EB
:100080000000000000000000000000000000000070
:10009000C93000080000000000000000C93000085E
:1000A00000000000C930000800000000000000004F
:1000B000C9300008C930000800000000000000003E
:1000C000002243088B4274D303098B425FD3030A97
:1000D0008B4244D3030B8B4228D3030C8B420DD3AA
:1000E000FF22090212BA030C8B4202D31212090238
:1000F00065D0030B8B4219D300E0090AC30B8B4276
:1001000001D3CB03C01A5241830B8B4201D38B0323
:10011000C01A5241430B8B4201D34B03C01A5241C8
:10012000030B8B4201D30B03C01A5241C30A8B420B
:1001300001D3CB02C01A5241830A8B4201D38B02F6
:10014000C01A5241430A8B4201D34B02C01A52419A
:10015000030A8B4201D30B02C01A5241CDD2C3090C
:100160008B4201D3CB01C01A524183098B4201D388
:100170008B01C01A524143098B4201D34B01C01A73
:10018000524103098B4201D30B01C01A5241C308EB
:100190008B4201D3CB00C01A524183088B4201D35A
:1001A0008B00C01A524143088B4201D34B00C01A46
:1001B0005241411A00D20146524110467047FFE7B2
:1001C00001B5002000F0F0F802BDC0460029F7D0CC
:1001D00076E7704703460B437FD4002243088B42E7
:1001E00074D303098B425FD3030A8B4244D3030BBE
:1001F0008B4228D3030C8B420DD3FF22090212BA83
:10020000030C8B4202D31212090265D0030B8B42FE
:1002100019D300E0090AC30B8B4201D3CB03C01AE8
:100220005241830B8B4201D38B03C01A5241430BC3
:100230008B4201D34B03C01A5241030B8B4201D3B3
:100240000B03C01A5241C30A8B4201D3CB02C01A1E
:100250005241830A8B4201D38B02C01A5241430A96
:100260008B4201D34B02C01A5241030A8B4201D385
:100270000B02C01A5241CDD2C3098B4201D3CB012C
:10028000C01A524183098B4201D38B01C01A5241DB
:1002900043098B4201D34B01C01A524103098B42DF
:1002A00001D30B01C01A5241C3088B4201D3CB00CA
:1002B000C01A524183088B4201D38B00C01A5241AD
:1002C00043088B4201D34B00C01A5241411A00D25D
:1002D00001465241104670475DE0CA0F00D04942C6
:1002E000031000D34042534000229C4603098B4236
:1002F0002DD3030A8B4212D3FC22890112BA030ABE
:100300008B420CD3890192118B4208D3890192113F
:100310008B4204D389013AD0921100E08909C309C4
:100320008B4201D3CB01C01A524183098B4201D3C6
:100330008B01C01A524143098B4201D34B01C01AB1
:10034000524103098B4201D30B01C01A5241C30829
:100350008B4201D3CB00C01A524183088B4201D398
:100360008B00C01A5241D9D243088B4201D34B00B3
:10037000C01A5241411A00D20146634652415B10F5
:10038000104601D34042002B00D5494270476346D6
:100390005B1000D3404201B5002000F005F802BD1B
:1003A0000029F8D016E770477047C046002B11D1DE
:1003B000002A0FD1002900D1002802D00021C94312
:1003C000080007B4024802A14018029003BDC046CD
:1003D000D9FFFFFF03B4684601B5029802F0D0FED2
:1003E000019B9E4602B00CBC7047C04610B5002968
:1003F00003D100F007F8203002E0080000F002F816
:1004000010BDC0461C2101231B04984201D3000CDF
:1004100010391B0A984201D3000A08391B09984277
:1004200001D30009043902A2105C40187047C0468D
:1004300004030202010101010000000000000000AD
:1004400010B5064C2378002B07D1054B002B02D0AA
:10045000044800E000BF0123237010BD1C000020F1
:100460000000000018330008044B10B5002B03D027
:100470000349044800E000BF10BDC0460000000072
:100480002000002018330008F0B5C64600B588B03B
:100490001422002103A802F018FE294BD96A042275
:1004A0001143D962D96A0A400092009ADA6A01259A
:1004B0002A43DA62DA6A2A400192019AD96A022250
:1004C0001143D962DB6A1A400292029B8024E40144
:1004D0001C4B984600222100180001F091F91A4F98
:1004E000A026F60500223900300001F089F90394B6
:1004F000049500240594069403A9404601F0C8F829
:10050000039704950594069403A9300001F0C0F800
:100510008023DB00039388235B030493059403A9E2
:10052000300001F0B5F800220021072001F09CF80E
:10053000072001F09DF808B080BCB846F0BDC04669
:1005400000100240000800501342000010B5A02423
:10055000E40501220121200001F052F901220221CB
:10056000200001F04DF910BD10B5A024E4050022D3
:100570000121200001F044F900220221200001F0B5
:100580003FF910BDF8B505000C008027FF01094EAA
:1005900000223900300001F033F9280000F0C6FCD9
:1005A00001223900300001F02BF9200000F0BEFCE0
:1005B000F8BDC0460008005070B505000C0000F002
:1005C000AFFC134A1278002A11D0124A1268821A1C
:1005D000AA4200D270BD0E4A002111700D4A10606F
:1005E00080310022C9010C4801F00AF9F2E7094AFA
:1005F0001268821AA242EDD3054A01211170054A00
:1006000010607F310122C901034801F0F9F8E1E7E8
:10061000500000204C0000200008005010B5FFF7EB
:1006200095FF642000F082FC8021A024E4050122D3
:100630008900200001F0E4F801221021200001F0DF
:10064000DFF810BD10B58021A024E4050022890048
:10065000200001F0D5F800221021200001F0D0F890
:10066000FFF782FF10BD0000014B01221A70704796
:100670000C00002010B504000023002002E0E25C22
:10068000504001338B42FAD310BD0000F8B5224B25
:1006900098423DD8214B1880204B1D882D1A204BA5
:1006A000188868436421FFF795FD06001D4B1888E4
:1006B00068436421FFF78EFD1B4B1C6804191C6006
:1006C0001A4F3868281A1A4B1B8858436421FFF7C1
:1006D00081FD3D60A4192418FA2189002000FFF74C
:1006E00079FD144B1860144B9C4204DA114B002224
:1006F0001A600D4B1A600F4B1B68322B05DD0D4B3A
:1007000032221A60084B0D4A1A600A4B1888F8BD4D
:10071000024B0B4A1A80BFE70F270000460000205B
:100720000400002002000020080000203C000020FF
:10073000000000203800002019FCFFFF50C300001B
:100740001027000070B50B4E70708025ED01A024BD
:10075000E40500222900200001F052F80648C823D1
:100760000222310001F06FFE01222900200001F079
:1007700047F870BD440000202C01002072B6FEE74F
:1007800000B583B008220021684602F09EFC29488B
:10079000294B03600023C363C022120642608360BA
:1007A00007228263063A0261C3602021425401316C
:1007B00043548362C221FF3141629639FF39435469
:1007C00028394161036383614263C36100F098FC8F
:1007D000002824D1194B009380235B010193154815
:1007E000694600F03FFE00281BD1154B00931148CD
:1007F000694600F037FE002815D1124B00930D48D2
:10080000694600F02FFE00280FD10F4B00930948D6
:10081000694600F027FE002809D103B000BDFFF7AC
:10082000ADFFFFF7ABFFFFF7A9FFFFF7A7FFFFF74C
:10083000A5FFC046840100200024014020000014D0
:10084000400000188000001C0000024410B50B4856
:100850000B4B0360E1235B02436000238360C360B2
:1008600003610C2242618361C3610362436202F04F
:10087000B5FB002800D110BDFFF780FF6400002009
:100880000044004010B50D480D4B036082235B000F
:10089000436000238360C360036143618022920050
:1008A0008261C3610362436283620733C36201F002
:1008B0006BFD002800D110BDFFF760FF2C01002068
:1008C0000030014000B587B01022002102A802F0DC
:1008D000FCFB08220021684602F0F7FB1648802343
:1008E000DB050360FA23DB00436000238360FA2208
:1008F0009200C26003618033436101F0DFFE002893
:1009000013D180235B0102930B4802A901F026FF5B
:1009100000280CD10023009301930748694602F098
:1009200037F8002805D107B000BDFFF727FFFFF714
:1009300025FFFFF723FFC046EC00002000B599B06B
:10094000342200210BA802F0C0FB1422002106A8CB
:1009500002F0BBFB18220021684602F0B6FB1A49E0
:100960000A681A4B1A4080231B0113430B601023A3
:100970000B930F3B119300231293A02212021392A8
:1009800014930BA800F0E8FF002817D10F2306935B
:1009900000230793089309930A93002106A801F006
:1009A00069FA00280CD102230093002302936846C1
:1009B00001F072FB002805D119B000BDFFF7DEFE83
:1009C000FFF7DCFEFFF7DAFE00700040FFE7FFFFF5
:1009D000F0B5C64600B584B000F082FAFFF7AEFF6E
:1009E000FFF752FDFFF7CCFEFFF730FFFFF74AFF9E
:1009F000FFF768FF9848002100F092FD974801F04A
:100A000081FEFA2040000100FFF7BCFD27E0FFF760
:100A100019FE934B32221A80924B1A88924BD318AC
:100A20009BB292498B4203D8914B01221A7011E07C
:100A3000FA239B009A4202D28D4B05221A70FA20AB
:100A400040000100FFF7B8FD04E0FFF7E7FD884B29
:100A500002221A70874B1B78002B00D0D0E0642054
:100A600000F064FA7C4C200000F040FC642120007F
:100A700000F08EFC200000F0F1FC7F4D2880642106
:100A8000200000F085FC200000F0E8FC7B4E308068
:100A90006421200000F07CFC200000F0DFFC784F97
:100AA00038806421200000F073FC200000F0D6FCA8
:100AB000744B98461880200000F048FC4346198883
:100AC0009620C003FFF786FB6F4B18800004040CD0
:100AD0002A886243D3171B051B0D9B181B136B48F9
:100AE00058436B49FFF776FB85B25E4B1D803A8811
:100AF0006243D3171B051B0D9B181B1365485843F6
:100B00006549FFF767FB654B188033885C43E31743
:100B10001B051B0D1C1924136001001B800000190C
:100B2000C000C3218900FFF755FB5D4B18805D4B6A
:100B30009D4202D94E4B04221A704D4B1A78052A59
:100B40005AD89300584AD3589F46E121890064201F
:100B5000FFF732FD434C2088FFF798FD404B18808B
:100B6000C0B2FFF7EFFD2288504B9A4203D8404BAA
:100B700000221A706EE74A4B1B88C72B0ED84C4BCD
:100B80001B88642B0AD9404B1A884A4B9A4205D9D4
:100B9000474B00221A80364B03321A70444A13889E
:100BA0000133138056E7FFF74DFD2D4B32221A809B
:100BB0002F4B2D3A1A704DE764216420FFF7FCFC9F
:100BC000FFF740FD274B1A883B4B9A4200D941E77B
:100BD000274B00221A703DE780210022C9013748C7
:100BE00000F00EFE00F0B4F90121012000F01CFE1F
:100BF0001F4B00221A702DE71D4B00221A7029E7A7
:100C00001C4B00221A7001AC022323700A3363705C
:100C1000144B1B881A0AA270E370204B1B881A0A17
:100C2000227163711E4B1B881A0AA271E371164B65
:100C30001B881A0A22726372094B1B88A3720B214C
:100C40002000FFF717FDE0721D4864230C222100ED
:100C500002F0E3F803E7C04684010020EC00002026
:100C6000480000205800002077ECFFFF664200009B
:100C7000400000200C0000206200002060000020E6
:100C80005E0000205C0000205A000020BC6D0300C4
:100C90005C12000058150100983A00005600002030
:100CA00054000020F0550000303300088713000086
:100CB00052000020280A0000EF55000000080050F4
:100CC0006400002010B5FFF739FE00F049F910BDAF
:100CD00010B5094B5A6B01210A435A63996B802264
:100CE00052050A439A6300220021042000F0BCFC54
:100CF000042000F0BDFC10BD0010024010B586B00D
:100D000004001422002101A802F0DFF922680E4B32
:100D10009A4201D006B010BD0C4B596B8022920054
:100D20000A435A63D96A01221143D962DB6A1A4025
:100D30000092009BE0230193DD3B0293A02001A9D8
:100D4000C00500F0A5FCE5E70024014000100240CA
:100D500030B589B004001422002103A802F0B5F9CF
:100D60002268194B9A4201D009B030BD174B596B1C
:100D7000802252010A435A63DA6A02242243DA6269
:100D8000DA6A22400192019AD96A01221143D9629A
:100D9000DB6A13400293029B039404940325069597
:100DA000079203A90A4800F073FC80239B01039378
:100DB000049400230593069505330793A02003A907
:100DC000C00500F065FCCFE7003001400010024094
:100DD0000004005010B502688023DB059A4200D061
:100DE00010BD074A936B01210B439363002200213E
:100DF0000F2000F039FC0F2000F03AFCF0E7C0466D
:100E00000010024010B586B004001422002101A891
:100E100002F05BF922680E4B9A4201D006B010BD79
:100E20000C4B996B802292020A439A63D96A022280
:100E30001143D962DB6A13400093009BC0230193E6
:100E40000292BD3B049301A9034800F021FCE5E7B1
:100E5000004400400010024000040050FEE7FEE79E
:100E60007047704710B500F04FF810BD704710B5CF
:100E70008020C00000F0CAFC10BD000010B5024880
:100E800001F0F4FC10BDC046EC00002070470000EB
:100E900010B504000F4B1978FA208000FFF710F905
:100EA00001000D4B1868FFF70BF900F0EDFB00286F
:100EB0000DD1032C01D901200AE0013000222100CC
:100EC000404200F0D1FB054B1C60002000E00120F7
:100ED00010BDC046140000201000002018000020A3
:100EE00010B5084A136840210B4313600320FFF735
:100EF000CFFF041E02D00124200010BDFFF7E8FE42
:100F0000FAE7C04600200240034A1168034B1B78F1
:100F10005B1813607047C046E001002014000020F9
:100F2000014B18687047C046E001002070B504000E
:100F3000FFF7F6FF0500631C02D0044B1B78E41892
:100F4000FFF7EEFF401BA042FAD370BD1400002053
:100F5000024A136802218B431360704710E000E0DF
:100F6000024A136802210B431360704710E000E04F
:100F700010B582B00400084B18680849FFF7A0F8C4
:100F80004443019402E0019B013B0193019B002B30
:100F9000F9D102B010BDC0461000002040420F0041
:100FA00070B50400026893685B0725D593685B07FA
:100FB00006D593689B0703D4936810210B43936075
:100FC000FFF7AEFF050023689B685B0712D5FFF7AC
:100FD000A7FF401B0A28F6D923689B685B07F2D558
:100FE000636D102213436365A36D0F3A1343A3652A
:100FF000012002E0002000E0002070BD70B5040078
:101000000268916803230B40012B01D0002070BDC2
:101010001368DB0731D5916805230B40012B09D0FC
:10102000436D102213434365836D0F3A1343836569
:101030000120ECE7936802210B43936003680322CD
:101040001A60FFF76DFF050023689B68DB0712D568
:10105000FFF766FF401B0A28F6D923689B68DB0769
:10106000F2D5636D102213436365A36D0F3A1343EA
:10107000A3650120CBE70020C9E70020C7E70000F7
:1010800070B504000268916803230B40012B0DD05A
:1010900091681A4B19420ED0636D10221343636599
:1010A000A36D0F3A1343A365012070BD1368DB07DE
:1010B000EED50020F9E7936801210B4393600120EE
:1010C000FFF756FFFFF72CFF050023681B68DB07BF
:1010D00012D4FFF725FF401B0A28F6D923681B68A6
:1010E000DB07F2D4636D102213436365A36D0F3ADF
:1010F0001343A3650120D8E70020D6E7170000803E
:1011000070B5041E00D1E2E0436D002B30D0636D5A
:10111000DB0633D423689A6804210D001540114280
:101120002CD1626D6B490A400631FF310A4362657A
:10113000996803220A40012A29D06268C021090661
:101140008A4228D08021C9058A4224D080210906FC
:101150008A4220D01A69920092081A615E4B1A687E
:101160005E490A401A601A6861680A431A601BE007
:10117000836550228354FFF7C1FDC8E7636D1022D9
:101180001343636550230022E254012070BD1A68A6
:10119000D20713D4D1E71A69920092081A61226823
:1011A000136961680B4313612268D36818218B436C
:1011B000D3602268D368A1680B43D360464B1A689A
:1011C00047490A401A601A68616B49060A431A6067
:1011D00023689A68D20004D49968802252050A4391
:1011E0009A602268D3683F490B40D3602068C26888
:1011F000E368216902292DD02B432021615C49033A
:101200000B432C21615C49000B43216B0B43A1690B
:1012100089030B43E169C9030B431343C360636A4A
:10122000C222FF32934205D02168CA68A06A0343F4
:101230001343CB602123E35C012B0DD0E36B012B27
:101240001ED022681369DB072DD5136901218B435A
:10125000136128E00425CFE71F33E35C002B06D1A0
:101260002268D16880235B020B43D360E6E7636D9D
:10127000202213436365A36D1F3A1343A365DDE783
:101280002268136918490B40136121680A69236CAD
:10129000606C0343A06C034313430B612268136922
:1012A00001210B4313612268536907218B4353616A
:1012B00022685369A16B0B4353610023A365636DDF
:1012C00003229343023A1343636500205EE7012043
:1012D0005CE7C046FDFEFFFF08270140FFFFC3FF9C
:1012E000FFFFFFFD1902FEFF03FCFFFF10B5040026
:1012F00003689B685B0723D45023C35C012B21D078
:1013000050230122C254C369012B14D10020626D05
:101310000D4B1A4080235B00134363650023A365D4
:101320005022A3542368343A1A6022689368042137
:101330000B43936010BDFFF7A3FE0028FAD1E6E748
:101340000220F7E70220F5E7FEF0FFFF10B50400EA
:101350005023C35C012B17D050230122C254FFF746
:101360001FFE002803D050230022E25410BD2000AD
:10137000FFF744FE0028F6D1636D044A134004329F
:10138000FF3213436365EEE70220EFE7FEFEFFFF47
:10139000F8B504000E004769082F04D00368DB6825
:1013A000DB0718D40C27FFF7BBFD050023681A687C
:1013B00017421FD1731CF9D0002E15D123681B686A
:1013C0001F42F3D1636D042213436365502300224F
:1013D000E254032034E0436D20221343436550233D
:1013E0000022C25401202BE0FFF79AFD401BB042BF
:1013F000DCD9E3E7616D802292000A436265D96817
:10140000C0221201114214D12022A25C002A10D164
:101410001A6812070DD59A68520712D45A680C211F
:101420008A435A60636D0C4A13400432FF321343FF
:101430006365A369002B0DD123680C221A6000207C
:10144000F8BD636D202213436365A36D1F3A1343F8
:10145000A365EEE70020F3E7FEFEFFFF0368186CCC
:101460007047000070B504000D005023C35C012BD1
:101470004BD050230122C25403689A6852071AD4F1
:101480004968234A914229D0996A2A685203520B2B
:101490000A439A622B685B0316D42B689B0305D51D
:1014A0001C4A11688023DB030B4313605023002286
:1014B000E254002070BD436D202213434365502346
:1014C0000022C2540120F5E7124A116880231B0450
:1014D0000B4313600A20FFF74BFDDEE7996A2A6889
:1014E0005203520B914399622B685B0304D5094A5E
:1014F000136809490B4013602B689B03D6D5054A36
:10150000136806490B401360D0E70220D2E7C046BB
:101510000110000008270140FFFF7FFFFFFFBFFF12
:1015200070B504005023C35C012B4DD05023012221
:10153000C2540368996802320A40012A08D11A6825
:10154000D20705D5436D202213434365012037E0C0
:10155000626D1E490A400631FF310A436265DE684A
:1015600001310E40DA688A43DA602268916880238C
:101570001B060B439360FFF7D3FC050023689A68B2
:10158000002A13DAFFF7CCFC401B0A28F6D923689F
:101590009B68002BF2DA636D12229343023A1343E5
:1015A000636550230022E25401200CE0DA683243E4
:1015B000DA60636D03229343023A134363650020AC
:1015C00050230022E25470BD0220FCE7FDFEFFFF25
:1015D00070B5002811DB8308134DC0339B005C59A4
:1015E00003221040C000FC3216008640B44389013B
:1015F0000A40824022435A5170BD0F230340083BEA
:101600009B0806339B00094A944663445C680322A6
:101610001040C000FC3215008540AC4389010A40EF
:10162000824022435A60E7E700E100E000ED00E07D
:10163000013880235B0498420FD2094A5060094860
:10164000036A1B021B0AC02109060B430362002325
:10165000936007331360002070470120FCE7C04609
:1016600010E000E000ED00E010B5FFF7B1FF10BDA5
:10167000002805DB1F22024001239340014A13602A
:101680007047C04600E100E010B5FFF7D1FF10BD84
:10169000F0B5002356E086685F000324BC40A643F3
:1016A000CC68BC4034438460446894434E68360937
:1016B000012232409A402243426053E0DE0808365D
:1016C000B600375805321A4092000F249440A743C1
:1016D0000C69944022003A43325056E0022600E062
:1016E0000026A64034003C43023292003F4E945103
:1016F0003F4A9768EA433E00AE434C68E40201D596
:101700003E002E433A4CA660E7683E0016404C6807
:10171000A40201D53E002E43354CE66067683E00CA
:1017200016404C68A40301D53E002E43304C666041
:10173000266832404C68E40301D52A0032432C4C21
:10174000226001330C682200DA404DD001229A4019
:10175000250015401442F4D04E6803243440013C67
:10176000012C98D94C6803222240032A08D0C4686F
:101770005E000322B24094438A68B2402243C260B2
:101780004C6803222240022A98D004685E0003229B
:101790001700B740BC434F683A40B2402243026052
:1017A0004C68C02292021442CBD0124C626B0126CC
:1017B000324362639A08941CA4000C4EA759032478
:1017C0001C40A4000F26A640B743A026F605B04251
:1017D00086D0094EB04205D0084EB04200D17DE718
:1017E00006267EE701267CE7F0BDC04600000140EA
:1017F00000040140001002400004005000080050A6
:10180000002A01D0816170478162FCE710B5054B69
:101810005B69184200D110BD024B5861FFF752FAC4
:10182000F9E7C0460004014070B502001A4B1D687C
:10183000802080002C000440184B1E6A0123334096
:10184000054206D0002B04D0134D2868144E3040BA
:101850002860114D28680326B043104328601148C2
:10186000026904252A430261012912D040BF20BF2A
:1018700020BF0C490A69042082430A61002C07D06A
:10188000002B05D0044A116880239B000B43136092
:1018900070BD30BFEDE7C046007000400000014061
:1018A000FFFDFFFF00ED00E010B5264BDA680C23CA
:1018B0001340082B42D00C2B11D0042B09D0214B04
:1018C0005A68520B072313400133802000029840CE
:1018D00010BD1C4B1B68DB0632D51B48F8E7910C8A
:1018E0000F230B401949C85C920D03231A40541C66
:1018F000144BDB68DB0309D5154A0023002101F0F6
:1019000011FC22000023FEF751FDE1E70D4B1B689F
:10191000DB0609D50C4A0023002101F003FC22005C
:101920000023FEF743FDD3E70A4A0023002101F01C
:10193000F9FB22000023FEF739FDC9E70448C7E799
:101940000448C5E70010024000093D004833000884
:1019500000127A000024F400F0B583B0041E00D118
:1019600065E2C54BDA680C251540DE6880235B0212
:101970001E400368DB0736D5082D2CD00C2D28D04F
:10198000636880225202934255D0A022D202934231
:1019900058D0B94B1A68B9490A401A601A688021B0
:1019A00049020A400192019A1A68B5490A401A6030
:1019B0006368002B52D0FFF7B3FA0700AE4B1B68E9
:1019C0009B0310D4FFF7ACFAC01B6428F6D90320A0
:1019D0002EE2002ED4D0A84B1B689B0303D563686E
:1019E000002B00D126E223689B076DD5E3689A0699
:1019F00005D5A148026820210A4302608B43042DCB
:101A00003CD00C2D38D0002B00D1B0E09A490A68A8
:101A10000920824313430B60FFF782FA0600964BBE
:101A20001B685B0700D599E0FFF77AFA801B022854
:101A3000F5D90320FCE1904A116880235B020B4337
:101A40001360B5E78C4B19688022D2020A431A60F2
:101A50001968802252020A431A60A9E7FFF760FA68
:101A60000700854B1B689B03BDD5FFF759FAC01BC8
:101A70006428F6D90320DBE1002EC4D17E4A126827
:101A8000520702D5002B00D1D6E17B4E72687D490A
:101A90000A40216909020A437260326809218A43B7
:101AA00013433360FFF700FFF26812090F2313405E
:101AB000754AD35CD840754B1860754B1868FFF7B2
:101AC000E7F9002800D0B3E12368DB062DD5002D0F
:101AD00060D1694B1B689B0503D5A369002B00D11E
:101AE000ACE1654A53686B490B40216A0B43536074
:101AF00053681B021B0AE16909060B435360216A04
:101B0000490B013180231B028B40D16809090F2248
:101B10000A405D498A5CD3405C4A13605C4B18689C
:101B2000FFF7B6F9002800D082E123681B077DD5B6
:101B30006369002B67D0504A136D01210B43136575
:101B4000FFF7EEF906004C4B1B6D9B076ED4FFF7B9
:101B5000E7F9801B0228F6D9032069E146494B6862
:101B6000484A13402269120213434B60ACE7424AD1
:101B7000136801218B431360FFF7D2F906003E4B37
:101B80001B685B07A0D5FFF7CBF9801B0228F6D9AD
:101B900003204DE1A369002B22D0374A116880232E
:101BA0005B000B431360FFF7BBF90600324B1B6869
:101BB0009B0506D4FFF7B4F9801B0228F6D9032051
:101BC00036E12D4A536833490B40216A0B43536079
:101BD00053681B021B0AE16909060B435360A4E723
:101BE000254A13682C490B401360FFF799F906004A
:101BF000214B1B689B0598D5FFF792F9801B0228A3
:101C0000F6D9032014E11C4A136D01218B4313659F
:101C1000FFF786F90600184B1B6D9B0706D5FFF7EB
:101C20007FF9801B0228F6D9032001E123685B07B6
:101C300000D48EE0104B9B6BDB001BD40E4A916BE3
:101C400080235B050B4393630126144B1B68DB0564
:101C500028D5A36880225200934237D0002B4DD163
:101C6000054B1A6D0C490A401A651A6D0C490A4059
:101C70001A6531E00026E8E700100240FFFFFEFF92
:101C8000FFFFFBFFFFE0FFFF5C33000810000020B8
:101C900018000020FF1FFFFFFFFEFFFF0070004045
:101CA000FFFBFFFF6B4A116880235B000B4313604F
:101CB000FFF736F90700674B1B68DB05C9D4FFF750
:101CC0002FF9C01B6428F6D90320B1E0624A116DD8
:101CD00080235B000B431365A368002B28D0FFF71C
:101CE0001FF907005C4B1B6D9B0530D4FFF718F9FB
:101CF000C01B5A4B9842F5D9032099E0A022D2008C
:101D0000934209D0544B1A6D55490A401A651A6D11
:101D100054490A401A65DFE74F4B196D013AFF3A03
:101D20000A431A65196D802252000A431A65D3E7E7
:101D3000FFF7F6F80700484B1B6D9B0507D5FFF72B
:101D4000EFF8C01B454B9842F5D9032070E0012EF7
:101D50001AD0636A002B00D172E00C2D4FD0022BF9
:101D600018D03D4A136840490B401360FFF7D8F87C
:101D70000400394B1B689B013FD5FFF7D1F8001BCE
:101D80000228F6D9032053E0334A936B37490B40BE
:101D90009363DEE7304A136833490B401360FFF763
:101DA000BFF805002C4B1B689B0106D5FFF7B8F860
:101DB000401B0228F6D903203AE02749CB682C4A79
:101DC0001340A26AE06A0243206B02431343CB60D4
:101DD0000A6880235B0413430B60FFF7A1F804003B
:101DE0001D4B1B689B0106D4FFF79AF8001B0228C5
:101DF000F6D903201CE000201AE0002018E0012B97
:101E000020D0154BDA6880235B021340A16A8B4215
:101E10001AD1F0239B031340E16A8B4216D1C023F1
:101E20001B041A40236B9A4212D1002000E00120CB
:101E300003B0F0BD0120FBE70120F9E70120F7E73F
:101E40000020F5E70120F3E70120F1E70120EFE7AB
:101E50000120EDE7007000400010024088130000F0
:101E6000FFFEFFFFFFFBFFFFFFFFFFFEFFFFFFEF98
:101E7000FFFF02FF70B505000C00002800D1D1E083
:101E80006A4B1A68012313408B4219D32B689B07B6
:101E900006D5674AD368F0218B43A9680B43D3600A
:101EA0002B68DB077BD56B68022B20D0032B40D03F
:101EB000012B44D05E4A126892051DD4012099E09E
:101EC0005A4A136801218B4323431360FFF728F814
:101ED0000600564B1A6801231340A342D6D0FFF7E1
:101EE0001FF8801B534A9042F3D9032082E0504AE6
:101EF0001268920300D497E04D49CA6803208243D8
:101F00001343CB60FFF70CF806006B68022B1CD064
:101F1000032B28D0012B34D0454BDB680C221A420E
:101F20003DD0FEF7FDFF801B424B9842F4D90320C1
:101F300060E03F4A12689201DED401205AE03C4A38
:101F400012685207D8D4012054E0394BDA680C23C8
:101F50001340082B23D0FEF7E3FF801B354A904245
:101F6000F3D9032046E0324BDA680C2313400C2BE4
:101F700015D0FEF7D5FF801B2E4B9842F3D90320D6
:101F800038E02B4BDA680C231340042B07D0FEF704
:101F9000C7FF801B274B9842F3D903202AE0234B2D
:101FA0001A6801231340A34225D82B685B0706D586
:101FB0001F4AD36820490B40E9680B43D3602B6864
:101FC0001B0707D51A49CB681C4A13402A69D2005F
:101FD0001343CB60FFF768FC154BDA6812090F2337
:101FE0001340174AD35CD840164B1860164B18683C
:101FF000FEF74EFF70BD0D4A136801218B4323434A
:102000001360FEF78DFF0600084B1A68012313408A
:10201000A342CAD0FEF784FF801B064B9842F3D937
:102020000320E7E70120E5E70120E3E70020024085
:102030000010024088130000FFF8FFFFFFC7FFFFFA
:102040005C3300081000002018000020014B1868C5
:102050007047C0461000002010B5FFF7F7FF044B93
:10206000DA68120A07231340024AD35CD84010BD35
:10207000001002405433000810B5FFF7E7FF044B8F
:10208000DA68D20A07231340024AD35CD84010BD55
:10209000001002405433000870B5040003689B062A
:1020A0004ED55B4B9B6BDB0074D4594A916B8023FC
:1020B0005B050B4393630126564B1B68DB056BD511
:1020C000534B1B6862685340C02189030B4205D003
:1020D000C0239B0211001940994271D04C4B196DDD
:1020E000C0239B0208001840194215D01A408242B2
:1020F00012D023689B060FD5454B1A6D46491140F7
:102100001D6D8020000328431865186D434D28403D
:1021100018651965D20559D423689B060ED56368E6
:10212000C02292021900114091425ED038490B6DD5
:102130006268C0208002024013430B65012E5ED00E
:1021400023689B0706D5324AD36C0C218B43A168C8
:102150000B43D36423685B0706D52D4AD36C304903
:102160000B40E1680B43D36423681B0706D5284A5C
:10217000D36C2C490B4021690B43D36423681B06A5
:1021800043D5234AD36C28490B4061690B43D36480
:1021900000203BE000268FE71E4A116880235B0089
:1021A0000B431360FEF7BCFE05001A4B1B68DB05F2
:1021B00086D4FEF7B5FE401B6428F6D9032025E03F
:1021C000134B1B689B0389D501201FE0FEF7A8FE77
:1021D00005000F4B1B6D9B059ED4FEF7A1FE401B17
:1021E000124B9842F5D9032010E009490A681048BB
:1021F0000240C0208003034013430B6096E7044A6B
:10220000936B0C490B4093639AE7002070BDC04666
:102210000010024000700040FFFFFCFFFFFFF7FFCF
:10222000FFF3FFFFFFCFFFFFFFFFF3FF8813000067
:10223000FFFFCFFFFFFFFFEFF0B5D6464F46464604
:10224000C0B582B006000D0090461F00FEF768FE84
:102250000A9B181A8146B944FEF762FE82462C4B4F
:102260001B685B011B0D4A465343019333689C680E
:102270002C40641B63425C41444542D07B1CF5D03A
:10228000FEF74EFE5346C01A484508D2019A002A6E
:1022900000D04A46019B013B01939146E6E7326834
:1022A0005368E0218B435360726882235B009A423B
:1022B0000CD0B26A80239B019A4216D0512301228E
:1022C000F254013B0022F25403201BE0B368802249
:1022D0001202934203D08022D2009342E9D13268A5
:1022E000136840218B431360E3E7326813680949A0
:1022F0000B4013603268116880239B010B4313600D
:10230000DCE7002002B0E0BCBA46B146A846F0BD0A
:1023100010000020FFDFFFFF70B584B004000D0047
:102320001600174B18681749FDF7CAFE43011B1A20
:102330009B001818C0000390626882235B009A42D9
:102340000BD0039B002B17D0039B013B0393236807
:102350009B681B06F5D400200FE000962B0000229E
:1023600080212000FFF768FF002806D0636D20223F
:1023700013436365032000E0002004B070BDC04635
:102380001000002000366E0170B5041E59D0436A5B
:10239000002B07D142680533FF339A4205D0002352
:1023A000C36102E00023036143610023A362513350
:1023B000E35C002B3ED051220221A1542068036827
:1023C0004025AB4303606368822040000340A0685F
:1023D00084252D0228400343E06880252D012840F4
:1023E0000343206901400B436169012001400B4315
:1023F000A1698025AD0029400B43E56938212940BA
:102400000B43256A802129400B43A16A8025AD0139
:10241000294025680B432B60618B04230B40656AC0
:102420001021294025680B436B6000236365A0548D
:10243000002070BD50330022E2542000FEF788FCDB
:10244000B9E70120F5E7F0B5CE4600B584B0040049
:10245000019191461D005023C35C012B00D1C9E0BE
:1024600050230122C254FEF75BFD06005123E35CBA
:10247000DFB2012B00D0B4E00199002900D1B1E016
:102480004B46002B00D1ADE051230322E254002340
:10249000636521634A46A286E286A363A387E38736
:1024A00063642364A26880231B029A421ED02268C0
:1024B00013685B0603D4136840210B431360E26882
:1024C00080231B019A421DD06368002B02D04B462B
:1024D000012B53D1226B236812781A73236B0133BB
:1024E0002363E38E013B9BB2E38647E022681368D7
:1024F00040218B431360226811688023DB010B436A
:102500001360D4E76368002B02D04B46012B14D133
:10251000226B23681288DA60236B02332363E38E15
:10252000013B9BB2E38608E0FEF7FAFC801BA84261
:1025300001D36B1C14D1002D12D0E38E9BB2002B63
:1025400034D0226893689B07EED5236B1B88D36039
:10255000236B02332363E38E013B9BB2E386ECE7FC
:1025600051230122E25403273CE0FEF7D9FC801BF3
:10257000A84201D36B1C14D1002D12D0E18E89B278
:10258000002913D0226893689B07EED5236B1B7834
:102590001373236B01332363E18E013989B2E18622
:1025A000ECE751230122E25403271BE0320029000B
:1025B0002000FFF7B1FE002801D020236365A36847
:1025C000002B06D103932368DA6803929B68039378
:1025D000039B636D002B05D151330122E254002788
:1025E00000E0022750230022E254380004B080BCEF
:1025F000B946F0BD0227F8E703688022D205904271
:1026000002D00F4A904203D1702293434A68134389
:102610008022D205904202D0094A904203D1094A51
:102620001340CA681343802293430A69134303602B
:102630008B68C3620B688362012343617047C046A5
:1026400000080140FFFCFFFF30B5036A046A012562
:10265000AC4304628469EF35AC43120122430A247F
:10266000A3430B438261036230BD000030B5036AAF
:102670001024A34303628469036A054D2C401203AE
:102680002243A024A343090119438261016230BDA2
:10269000FF0FFFFF8368702293430B43693A134394
:1026A0008360704730B58468034D2C401B02134390
:1026B0000B432343836030BDFF00FFFF70B5041E52
:1026C0001ED03923C35C002B14D039250223635557
:1026D000210001C9FFF790FF01233E22A354043AD1
:1026E000A3540132A3540132A3540132A3546355BD
:1026F000002070BD38330022C254FEF76BFBE4E7C4
:102700000120F6E73923C35C012B20D138330222A4
:10271000C2540268D36801210B43D360036880224E
:10272000D205934208D00C4A934205D01A68012181
:102730000A431A6000200BE0996807220A40062A23
:1027400007D01A6801210A431A60002000E0012026
:1027500070470020FCE7C0460008014010B50400A7
:1027600008003823E35C012B00D177E038230122F5
:10277000E25401330132E2542268936838490B4035
:102780009360016860294FD029D8402957D00CD9CF
:10279000502922D14168C2682068FFF755FF2068A0
:1027A0005021FFF777FF002005E020290ED009D93E
:1027B00030290BD0012039230122E254013B0022B1
:1027C000E25410BD002901D0102904D12068FFF780
:1027D00061FF0020EFE70120EDE70120EBE7802219
:1027E0005201914236D08022920191420DD18168EE
:1027F0004268C3682068FFF755FF2268916880230C
:10280000DB010B4393600020D5E7702924D1816858
:102810004268C3682068FFF745FF22689368772104
:102820000B4393600020C6E74168C2682068FFF749
:102830001DFF20686021FFF72DFF0020BBE74168E6
:10284000C2682068FFF700FF20684021FFF722FFE1
:102850000020B0E70020AEE70120ACE70220B0E79F
:102860008800FFFF704770477047704710B504003D
:10287000026813699B070FD5D3689B070CD5032308
:102880005B4213610433037603689B699B0755D051
:10289000FFF7E9FF00232376226813695B0712D54F
:1028A000D3685B070FD505235B421361073323769B
:1028B00023689A69C0239B001A4245D02000FFF785
:1028C000D2FF00232376226813691B0710D5D36833
:1028D0001B070DD509235B4213610D332376236853
:1028E000DB699B0737D02000FFF7BDFF002323766D
:1028F00022681369DB0612D5D368DB060FD51123D6
:102900005B421361193323762368DA69C0239B0085
:102910001A4227D02000FFF7A6FF00232376226863
:102920001369DB0702D5D368DB0722D42268136959
:102930005B0602D5D3685B0622D410BDFFF792FF79
:102940002000FFF791FFA5E72000FFF78BFF200095
:10295000FFF78AFFB5E72000FFF784FF2000FFF7AD
:1029600083FFC3E72000FFF77DFF2000FFF77CFF18
:10297000D3E702235B4213612000FDF775FED5E724
:1029800041235B4213612000FFF76FFFD5E7000092
:1029900030B53823C35C012B22D038230122C25426
:1029A00001330132C25403685C689D686E329443FF
:1029B0000A6822435A6003688022D205934202D0FB
:1029C000084A934204D1802295434A682A439A6078
:1029D00039230122C254013B0022C254002030BDE1
:1029E0000220FCE70008014010B5EFF3108C012233
:1029F00082F3108801680B68124C23400B608CF343
:102A00001088EFF3108C82F3108801688B68934371
:102A10008B608CF31088036E012B06D0802320225C
:102A2000C25000230366836610BDEFF3108183F369
:102A30001088026813683234FF34A343136081F3B3
:102A40001088EBE7DFFEFFFFD0B504000168836864
:102A50000269134342691343C26913430A688448F5
:102A6000024013430B602268536882490B40E168BF
:102A70000B435360A16922687F4B9A4201D0236ABD
:102A8000194393687D4803400B43936022687C4B55
:102A90009A4212D0784B9A4220D0102376498A422B
:102AA00042D0E06980221202904279D0082B00D9EE
:102AB000D8E09B00734AD3589F46734BD96C0C23C4
:102AC0000B40082B22D005D8002B21D0042BE5D0B9
:102AD0001023E3E70C2B1DD1043BDFE76A4BDB6CD3
:102AE000C02109010B40802109018B4214D007D875
:102AF000002B13D08021C9008B4211D10423CDE7D4
:102B0000C02109018B420DD10823C7E70223C5E785
:102B10000023C3E71023C1E70223BFE70023BDE77B
:102B20001023BBE71023B9E7042B34D00BD8002BBC
:102B30002BD0022B05D1544B1B68DB062ED45348F7
:102B400005E001206DE0082B1DD1802000026268A5
:102B500053009B18834200D978E01303834200D2CC
:102B600076E0070E06025008002180197941002303
:102B7000FDF71CFC464BC218464B9A426AD82368A4
:102B8000D86000204DE001204BE0FFF765FA0028F7
:102B9000DDD1002045E0FEF787FEF8E73E48D6E7A6
:102BA000082B59D89B003D4AD3589F46FFF754FA4B
:102BB000002853D0400061684B08C018FDF780FA28
:102BC0000200103A364B9A424AD882B20F239A43F7
:102BD0004008083B034013432268D360002020E0F4
:102BE000FFF74AFAE4E7284B1B68DB0604D42748C2
:102BF000E0E7FEF759FEDBE72748DBE7FFF72CFAB3
:102C0000002831D061684B081818FDF759FA020006
:102C1000103A234B9A4229D823680004000CD8604C
:102C200000200023A366E366D0BDFFF725FAE7E79F
:102C3000154B1B68DB0607D41448E3E7FEF734FEA8
:102C4000DEE780200002DDE71348DBE70120E8E74C
:102C50000120E6E70120E4E70120E2E70020E0E7C9
:102C60000120DEE70120DCE70020DAE70120D8E7D9
:102C7000F369FFEFFFCFFFFF00480040FFF4FFFFC5
:102C8000004400406C330008001002400024F400AF
:102C900000FDFFFFFFFC0F0000093D00903300081E
:102CA000EFFF0000436ADB0706D5026853682C4932
:102CB0000B40816A0B435360436A9B0706D5026849
:102CC000536828490B40C16A0B435360436A5B0752
:102CD00006D50268536824490B40016B0B435360CF
:102CE000436A1B0706D50268536820490B40416BB5
:102CF0000B435360436ADB0606D5026893681C49A0
:102D00000B40816B0B439360436A9B0606D50268B8
:102D1000936818490B40C16B0B439360436A5B0691
:102D20000BD50268536814490B40016C0B43536088
:102D3000026C80235B039A420AD0436A1B0606D5C5
:102D4000026853680D490B40816C0B435360704718
:102D5000026853680A490B40416C0B435360ECE72F
:102D6000FFFFFDFFFFFFFEFFFFFFFBFFFF7FFFFFFA
:102D7000FFEFFFFFFFDFFFFFFFFFEFFFFFFFF7FFAB
:102D8000FFFF9FFFF8B5CE46474680B506000D0011
:102D900017009946089B98463368DC692C40641BF1
:102DA00063425C41BC422FD143460133F4D0FEF76D
:102DB000B7F84B46C01A40452BD84346002B2AD0C3
:102DC00033681A685207E7D5DA69120710D4DA694E
:102DD0001205E1D5802212011A623000FFF704FECD
:102DE00084232022F2500C3B0022F25403200CE0FA
:102DF00008241C623000FFF7F7FD8423F4500C3BDD
:102E00000022F254012000E00020C0BCB946B046C8
:102E1000F8BD0320F9E70320F7E7F0B5C64600B593
:102E200082B004000D0090461E00C36F202B62D1BB
:102E3000002965D0002A65D0826880235B019A4210
:102E400004D10369002B01D1CB075DD48423002278
:102E5000E250633BE367FEF763F807005023424606
:102E6000E2520233E252A26880235B019A4202D00E
:102E70000023984617E02369002B29D000239846A9
:102E800011E02023E367032036E043461B882268D5
:102E9000DB05DB0D936202239C46E0445223E25A99
:102EA000013A92B2E2525223E35A9BB2002B12D063
:102EB00000963B00002280212000FFF763FF0028DE
:102EC000DFD1002DE1D02A7823689A620135E5E749
:102ED000A8460025E7E700963B000022402120009D
:102EE000FFF750FF002802D12023E36704E02023EE
:102EF000E367032000E0022002B080BCB846F0BDCA
:102F00000120F9E70120F7E70120F5E730B583B0AC
:102F1000040084230022C250FEF702F80500236853
:102F20001B681B070FD423681B685B0729D4202369
:102F3000E3678022A350002323666366083AA35404
:102F4000002003B030BD8021224B009303000022FB
:102F500089032000FFF716FF0028E4D0EFF310816B
:102F6000012383F310882268136880208343136051
:102F700081F310882023E36758330022E2547D3820
:102F8000DFE78021134B00932B000022C9032000B0
:102F9000FFF7F8FE0028CAD0EFF31080012282F379
:102FA000108821680B680C4D2B400B6080F3108853
:102FB000EFF3108082F3108821688B6893438B6055
:102FC00080F3108880231F32E250083B0022E25435
:102FD0000320B6E7FFFFFF01DFFEFFFF10B5041E71
:102FE0002ED0C36F002B21D02423E36722681368FF
:102FF00001218B4313602000FFF726FD012814D028
:10300000636A002B18D1226853680E490B40536045
:10301000226893682A218B439360226813682939B8
:103020000B4313602000FFF771FF10BD78330022BF
:10303000C254FDF7E7FED7E72000FFF733FEE2E7D3
:103040000120F2E7FFB7FFFF13488546FDF71EFF9B
:1030500012480168090E124A914205D111481249DD
:10306000016012481249016012481349134A0023B3
:1030700002E0D458C4500433C4188C42F9D3104A27
:10308000104C002301E013600432A242FBD300F095
:1030900025F8FDF79DFCFEE7000800200400000075
:1030A0001F00000034100240010000000000014039
:1030B00000000000000000201C000020C4330008B5
:1030C0001C000020E4010020FEE703008218934268
:1030D00000D1704719700133F9E7000070B5002680
:1030E0000C4C0D4D641BA410A64209D1002600F023
:1030F00013F90A4C0A4D641BA410A64205D170BDF9
:10310000B300EB5898470136EEE7B300EB58984709
:103110000136F2E7BC330008BC330008C0330008B6
:10312000BC330008F0B5CE469946030C9C46130408
:1031300047461B0C1D000E0061460404240C80B59C
:103140000700100C4B436543414360432C0CC018EF
:1031500024188C46A34203D980235B029846C444BA
:10316000494679435643230C2D042D0C8919634499
:1031700024046019C918C0BCB946B046F0BDC046A9
:10318000F0B557464E464546DE46E0B504000D0014
:103190009246994683B08B4230D82DD0494650464E
:1031A000FDF724F9290006002000FDF71FF9331A66
:1031B0009846203B34D49B4653465A469340424659
:1031C0001F00534693401E00AF423BD8AF4200D190
:1031D00079E05B46A41BBD41002B00DA76E00022BB
:1031E00000230092019301235A4693400193012347
:1031F00042469340009329E08242CFD90022002327
:10320000009201930C9B002B01D01C605D60009824
:10321000019903B0F0BCBB46B246A946A046F0BD3A
:1032200042469B4620239B1A5246DA4041461300F1
:103230004A468A40170042461F43534693401E00A9
:10324000AF42C3D900220023009201934346002BD2
:10325000D8D0FB0772081A4346467B080EE0AB4203
:1032600001D1A2420CD8A41A9D41012024196D411C
:103270000021013E24184D41002E06D0AB42EED96C
:10328000013E24196D41002EF8D1009801995B464A
:1032900000196941002B24DB2B005A464446D340D9
:1032A0002A00E2401C005B461500002B2ADB2600AA
:1032B0009E40330026004746BE403200801A9941A6
:1032C000009001919EE7A342BCD882E742462023AA
:1032D00000219B1A0022009101920122DA40019202
:1032E00085E7424620239B1A2A0046469A4023003F
:1032F000F340444613432A00E2401C005B4615009D
:10330000002BD4DA42462F002023260097409B1A38
:10331000DE403B003343CDE7F8B5C046F8BC08BCFF
:103320009E467047F8B5C046F8BC08BC9E4670473C
:103330000E0A00084A0A00084A0B0008A60B0008FB
:10334000B80B0008D80B0008030406080C1018205E
:103350003000000000000000010203040000000033
:10336000000000000102030406070809FC2B000806
:103370002A2C0008302C0008642C00083C2C000883
:10338000642C0008642C0008642C0008422C0008FF
:10339000AC2B0008E02B0008E62B0008582C000896
:1033A000F22B0008582C0008582C0008582C000854
:0433B000B42B000832
:0833B400CCFDFF7F01000000C9
:0433BC006904000898
:0433C00041040008BC
:1033C400320096000500000050C300000100000018
:0C33D400000020000100000004000000C8
:040000050800304976
:00000001FF
