:020000040800F2
:1000000000080020911A0008B1070008B307000893
:1000100000000000000000000000000000000000E0
:10002000000000000000000000000000B50700080C
:100030000000000000000000B7070008B907000832
:10004000111B0008111B0008111B0008111B0008E0
:10005000111B0008111B0008111B0008C107000834
:1000600000000000111B0008111B0008111B0008F4
:10007000111B0008111B000800000000111B0008E4
:100080000000000000000000000000000000000070
:10009000111B00080000000000000000111B0008F8
:1000A00000000000111B000800000000000000001C
:1000B000111B0008111B00080000000000000000D8
:1000C000002243088B4274D303098B425FD3030A97
:1000D0008B4244D3030B8B4228D3030C8B420DD3AA
:1000E000FF22090212BA030C8B4202D31212090238
:1000F00065D0030B8B4219D300E0090AC30B8B4276
:1001000001D3CB03C01A5241830B8B4201D38B0323
:10011000C01A5241430B8B4201D34B03C01A5241C8
:10012000030B8B4201D30B03C01A5241C30A8B420B
:1001300001D3CB02C01A5241830A8B4201D38B02F6
:10014000C01A5241430A8B4201D34B02C01A52419A
:10015000030A8B4201D30B02C01A5241CDD2C3090C
:100160008B4201D3CB01C01A524183098B4201D388
:100170008B01C01A524143098B4201D34B01C01A73
:10018000524103098B4201D30B01C01A5241C308EB
:100190008B4201D3CB00C01A524183088B4201D35A
:1001A0008B00C01A524143088B4201D34B00C01A46
:1001B0005241411A00D20146524110467047FFE7B2
:1001C00001B5002000F0F0F802BDC0460029F7D0CC
:1001D00076E7704703460B437FD4002243088B42E7
:1001E00074D303098B425FD3030A8B4244D3030BBE
:1001F0008B4228D3030C8B420DD3FF22090212BA83
:10020000030C8B4202D31212090265D0030B8B42FE
:1002100019D300E0090AC30B8B4201D3CB03C01AE8
:100220005241830B8B4201D38B03C01A5241430BC3
:100230008B4201D34B03C01A5241030B8B4201D3B3
:100240000B03C01A5241C30A8B4201D3CB02C01A1E
:100250005241830A8B4201D38B02C01A5241430A96
:100260008B4201D34B02C01A5241030A8B4201D385
:100270000B02C01A5241CDD2C3098B4201D3CB012C
:10028000C01A524183098B4201D38B01C01A5241DB
:1002900043098B4201D34B01C01A524103098B42DF
:1002A00001D30B01C01A5241C3088B4201D3CB00CA
:1002B000C01A524183088B4201D38B00C01A5241AD
:1002C00043088B4201D34B00C01A5241411A00D25D
:1002D00001465241104670475DE0CA0F00D04942C6
:1002E000031000D34042534000229C4603098B4236
:1002F0002DD3030A8B4212D3FC22890112BA030ABE
:100300008B420CD3890192118B4208D3890192113F
:100310008B4204D389013AD0921100E08909C309C4
:100320008B4201D3CB01C01A524183098B4201D3C6
:100330008B01C01A524143098B4201D34B01C01AB1
:10034000524103098B4201D30B01C01A5241C30829
:100350008B4201D3CB00C01A524183088B4201D398
:100360008B00C01A5241D9D243088B4201D34B00B3
:10037000C01A5241411A00D20146634652415B10F5
:10038000104601D34042002B00D5494270476346D6
:100390005B1000D3404201B5002000F005F802BD1B
:1003A0000029F8D016E770477047C046002B11D1DE
:1003B000002A0FD1002900D1002802D00021C94312
:1003C000080007B4024802A14018029003BDC046CD
:1003D000D9FFFFFF03B4684601B5029801F0F4FBB2
:1003E000019B9E4602B00CBC7047C04610B5002968
:1003F00003D100F007F8203002E0080000F002F816
:1004000010BDC0461C2101231B04984201D3000CDF
:1004100010391B0A984201D3000A08391B09984277
:1004200001D30009043902A2105C40187047C0468D
:1004300004030202010101010000000000000000AD
:1004400010B5064C2378002B07D1054B002B02D0AA
:10045000044800E000BF0123237010BD0C00002001
:1004600000000000601D0008044B10B5002B03D0F5
:100470000349044800E000BF10BDC0460000000072
:1004800010000020601D0008F0B5C64600B588B019
:100490001422002103A801F03CFB244BDA6A012559
:1004A0002A43DA62DA6A2A400192019ADA6A02275A
:1004B0003A43DA62DB6A3B400293029B1C4CA02663
:1004C000F60500222100300000F02AFE194B984664
:1004D00000220221180000F023FE0394049500245A
:1004E0000594069403A9300000F062FD039704957B
:1004F0000594069403A9404600F05AFD8023DB00D2
:10050000039388235B030493059403A9300000F050
:100510004FFD00220021072000F036FD072000F0EB
:1005200037FD08B080BCB846F0BDC04600100240A0
:10053000130200000004005072B6FEE700B583B05D
:1005400008220021684601F0E4FA2048204B0360AD
:100550000023C363C02212064260836007228263C5
:10056000063A0261C3602021425401314354836240
:10057000C221FF3141629639FF3943542839416124
:10058000036383614263C36100F04AFA002817D114
:10059000104B009380235B0101930C48694600F0E7
:1005A000F1FB00280ED10C4B009380235B010193DB
:1005B0000648694600F0E6FB002805D103B000BDFF
:1005C000FFF7BAFFFFF7B8FFFFF7B6FF34000020D0
:1005D00000240140200000140000024400B599B03E
:1005E000342200210BA801F094FA1422002106A85D
:1005F00001F08FFA18220021684601F08AFA1A49A0
:100600000A681A4B1A4080231B0113430B60102306
:100610000B930F3B119300231293A022120213920B
:1006200014930BA800F0EAFD002817D10F230693BE
:1006300000230793089309930A93002106A801F069
:100640006BF800280CD10223009300230293684624
:1006500001F04EF9002805D119B000BDFFF76CFF7D
:10066000FFF76AFFFFF768FF00700040FFE7FFFF3A
:1006700070B500F0D5F8FFF7B1FFFFF705FFFFF702
:100680005DFF2648002100F0DBFB244C200000F039
:10069000BDFA6421200000F00BFB200000F06EFB8F
:1006A0001F4D28806421200000F002FB200000F094
:1006B00065FB1C4E3080200000F0D8FA318896206F
:1006C000C003FFF787FD184B18802A8803041B0C12
:1006D0005343D8170005000DC0180013134B1880A2
:1006E0000004030C124858431249FFF773FD124BE4
:1006F0001880124D00220221280000F011FDFA247A
:100700006400200000F0B2F801220221280000F06D
:1007100007FD200000F0AAF8B7E7C046340000202B
:10072000300000202E0000202C0000202A00002095
:10073000BC6D03005C120000280000200004005083
:10074000054B5A6B01210A435A63996B802252056B
:100750000A439A637047C0460010024010B586B045
:1007600004001422002101A801F0D3F922680E4BE5
:100770009A4201D006B010BD0C4B596B80229200FA
:100780000A435A63D96A01221143D962DB6A1A40CB
:100790000092009B202301931D3B0293A02001A9FE
:1007A000C00500F005FCE5E7002401400010024010
:1007B000FEE7FEE77047704710B500F045F810BD42
:1007C00010B58020C00000F0B3FC10BD70470000E1
:1007D00010B504000F4B1978FA208000FFF770FC69
:1007E00001000D4B1868FFF76BFC00F0DDFB0028E3
:1007F0000DD1032C01D901200AE001300022210093
:10080000404200F0C1FB054B1C60002000E00120CD
:1008100010BDC04604000020000000200800002099
:1008200010B5084A136840210B4313600320FFF7FB
:10083000CFFF041E02D00124200010BDFFF780FF6F
:10084000FAE7C04600200240034A1168034B1B78B8
:100850005B1813607047C046900000200400002021
:10086000014B18687047C0469000002070B5040026
:10087000FFF7F6FF0500631C02D0044B1B78E41859
:10088000FFF7EEFF401BA042FAD370BD040000202A
:1008900010B582B00400084B18680849FFF710FC37
:1008A0004443019402E0019B013B0193019B002B17
:1008B000F9D102B010BDC0460000002040420F0038
:1008C00070B50400026893685B0725D593685B07E1
:1008D00006D593689B0703D4936810210B4393605C
:1008E000FFF7BEFF050023689B685B0712D5FFF783
:1008F000B7FF401B0A28F6D923689B685B07F2D52F
:10090000636D102213436365A36D0F3A1343A36510
:10091000012002E0002000E0002070BD70B504005E
:100920000268916803230B40012B01D0002070BDA9
:100930001368DB0731D5916805230B40012B09D0E3
:10094000436D102213434365836D0F3A1343836550
:100950000120ECE7936802210B43936003680322B4
:100960001A60FFF77DFF050023689B68DB0712D53F
:10097000FFF776FF401B0A28F6D923689B68DB0740
:10098000F2D5636D102213436365A36D0F3A1343D1
:10099000A3650120CBE70020C9E70020C7E70000DE
:1009A00070B504000268916803230B40012B0DD041
:1009B00091681A4B19420ED0636D10221343636580
:1009C000A36D0F3A1343A365012070BD1368DB07C5
:1009D000EED50020F9E7936801210B4393600120D5
:1009E000FFF756FFFFF73CFF050023681B68DB0796
:1009F00012D4FFF735FF401B0A28F6D923681B687D
:100A0000DB07F2D4636D102213436365A36D0F3AC5
:100A10001343A3650120D8E70020D6E71700008024
:100A200070B5041E00D1E2E0436D002B30D0636D41
:100A3000DB0633D423689A6804210D001540114267
:100A40002CD1626D6B490A400631FF310A43626561
:100A5000996803220A40012A29D06268C021090648
:100A60008A4228D08021C9058A4224D080210906E3
:100A70008A4220D01A69920092081A615E4B1A6865
:100A80005E490A401A601A6861680A431A601BE0EE
:100A9000836550228354FFF761FEC8E7636D10221F
:100AA0001343636550230022E254012070BD1A688D
:100AB000D20713D4D1E71A69920092081A6122680A
:100AC000136961680B4313612268D36818218B4353
:100AD000D3602268D368A1680B43D360464B1A6881
:100AE00047490A401A601A68616B49060A431A604E
:100AF00023689A68D20004D49968802252050A4378
:100B00009A602268D3683F490B40D3602068C2686E
:100B1000E368216902292DD02B432021615C490320
:100B20000B432C21615C49000B43216B0B43A169F2
:100B300089030B43E169C9030B431343C360636A31
:100B4000C222FF32934205D02168CA68A06A0343DB
:100B50001343CB602123E35C012B0DD0E36B012B0E
:100B60001ED022681369DB072DD5136901218B4341
:100B7000136128E00425CFE71F33E35C002B06D187
:100B80002268D16880235B020B43D360E6E7636D84
:100B9000202213436365A36D1F3A1343A365DDE76A
:100BA0002268136918490B40136121680A69236C94
:100BB000606C0343A06C034313430B612268136909
:100BC00001210B4313612268536907218B43536151
:100BD00022685369A16B0B4353610023A365636DC6
:100BE00003229343023A1343636500205EE701202A
:100BF0005CE7C046FDFEFFFF08270140FFFFC3FF83
:100C0000FFFFFFFD1902FEFF03FCFFFF10B504000C
:100C100003689B685B0723D45023C35C012B21D05E
:100C200050230122C254C369012B14D10020626DEC
:100C30000D4B1A4080235B00134363650023A365BB
:100C40005022A3542368343A1A602268936804211E
:100C50000B43936010BDFFF7A3FE0028FAD1E6E72F
:100C60000220F7E70220F5E7FEF0FFFF10B50400D1
:100C70005023C35C012B17D050230122C254FFF72D
:100C80001FFE002803D050230022E25410BD200094
:100C9000FFF744FE0028F6D1636D044A1340043286
:100CA000FF3213436365EEE70220EFE7FEFEFFFF2E
:100CB000F8B504000E004769082F04D00368DB680C
:100CC000DB0718D40C27FFF7CBFD050023681A6853
:100CD00017421FD1731CF9D0002E15D123681B6851
:100CE0001F42F3D1636D0422134363655023002236
:100CF000E254032034E0436D202213434365502324
:100D00000022C25401202BE0FFF7AAFD401BB04295
:100D1000DCD9E3E7616D802292000A436265D968FD
:100D2000C0221201114214D12022A25C002A10D14B
:100D30001A6812070DD59A68520712D45A680C2106
:100D40008A435A60636D0C4A13400432FF321343E6
:100D50006365A369002B0DD123680C221A60002063
:100D6000F8BD636D202213436365A36D1F3A1343DF
:100D7000A365EEE70020F3E7FEFEFFFF0368186CB3
:100D80007047000070B504000D005023C35C012BB8
:100D90004BD050230122C25403689A6852071AD4D8
:100DA0004968234A914229D0996A2A685203520B12
:100DB0000A439A622B685B0316D42B689B0305D504
:100DC0001C4A11688023DB030B431360502300226D
:100DD000E254002070BD436D20221343436550232D
:100DE0000022C2540120F5E7124A116880231B0437
:100DF0000B4313600A20FFF74BFDDEE7996A2A6870
:100E00005203520B914399622B685B0304D5094A44
:100E1000136809490B4013602B689B03D6D5054A1C
:100E2000136806490B401360D0E70220D2E7C046A2
:100E30000110000008270140FFFF7FFFFFFFBFFFF9
:100E400070B504005023C35C012B4DD05023012208
:100E5000C2540368996802320A40012A08D11A680C
:100E6000D20705D5436D202213434365012037E0A7
:100E7000626D1E490A400631FF310A436265DE6831
:100E800001310E40DA688A43DA6022689168802373
:100E90001B060B439360FFF7E3FC050023689A6889
:100EA000002A13DAFFF7DCFC401B0A28F6D9236876
:100EB0009B68002BF2DA636D12229343023A1343CC
:100EC000636550230022E25401200CE0DA683243CB
:100ED000DA60636D03229343023A13436365002093
:100EE00050230022E25470BD0220FCE7FDFEFFFF0C
:100EF00070B5002811DB8308134DC0339B005C598B
:100F000003221040C000FC3216008640B443890121
:100F10000A40824022435A5170BD0F230340083BD0
:100F20009B0806339B00094A944663445C6803228D
:100F30001040C000FC3215008540AC4389010A40D6
:100F4000824022435A60E7E700E100E000ED00E064
:100F5000013880235B0498420FD2094A5060094847
:100F6000036A1B021B0AC02109060B43036200230C
:100F7000936007331360002070470120FCE7C046F0
:100F800010E000E000ED00E010B5FFF7B1FF10BD8C
:100F9000002805DB1F22024001239340014A136011
:100FA0007047C04600E100E010B5FFF7D1FF10BD6B
:100FB000F0B5002356E086685F000324BC40A643DA
:100FC000CC68BC4034438460446894434E6836091E
:100FD000012232409A402243426053E0DE08083644
:100FE000B600375805321A4092000F249440A743A8
:100FF0000C69944022003A43325056E0022600E049
:101000000026A64034003C43023292003F4E9451E9
:101010003F4A9768EA433E00AE434C68E40201D57C
:101020003E002E433A4CA660E7683E0016404C68EE
:10103000A40201D53E002E43354CE66067683E00B1
:1010400016404C68A40301D53E002E43304C666028
:10105000266832404C68E40301D52A0032432C4C08
:10106000226001330C682200DA404DD001229A4000
:10107000250015401442F4D04E6803243440013C4E
:10108000012C98D94C6803222240032A08D0C46856
:101090005E000322B24094438A68B2402243C26099
:1010A0004C6803222240022A98D004685E00032282
:1010B0001700B740BC434F683A40B2402243026039
:1010C0004C68C02292021442CBD0124C626B0126B3
:1010D000324362639A08941CA4000C4EA75903245F
:1010E0001C40A4000F26A640B743A026F605B04238
:1010F00086D0094EB04205D0084EB04200D17DE7FF
:1011000006267EE701267CE7F0BDC04600000140D0
:10111000000401400010024000040050000800508C
:10112000002A01D0816170478162FCE770470000AE
:1011300010B5054B5B69184200D110BD024B5861D8
:10114000FFF7F4FFF9E7C0460004014010B5264B55
:10115000DA680C231340082B42D00C2B11D0042B3F
:1011600009D0214B5A68520B0723134001338020CA
:101170000002984010BD1C4B1B68DB0632D51B4893
:10118000F8E7910C0F230B401949C85C920D03231B
:101190001A40541C144BDB68DB0309D5154A0023A5
:1011A000002100F0E3FC22000023FFF7FFF8E1E755
:1011B0000D4B1B68DB0609D50C4A0023002100F00B
:1011C000D5FC22000023FFF7F1F8D3E70A4A0023F9
:1011D000002100F0CBFC22000023FFF7E7F8C9E76D
:1011E0000448C7E70448C5E70010024000093D0075
:1011F000781D000800127A000024F400F0B583B0D6
:10120000041E00D165E2C54BDA680C251540DE6886
:1012100080235B021E400368DB0736D5082D2CD0E7
:101220000C2D28D0636880225202934255D0A02210
:10123000D202934258D0B94B1A68B9490A401A6091
:101240001A68802149020A400192019A1A68B54938
:101250000A401A606368002B52D0FFF701FB0700B9
:10126000AE4B1B689B0310D4FFF7FAFAC01B64282F
:10127000F6D903202EE2002ED4D0A84B1B689B0386
:1012800003D56368002B00D126E223689B076DD548
:10129000E3689A0605D5A148026820210A43026046
:1012A0008B43042D3CD00C2D38D0002B00D1B0E066
:1012B0009A490A680920824313430B60FFF7D0FA6A
:1012C0000600964B1B685B0700D599E0FFF7C8FA4C
:1012D000801B0228F5D90320FCE1904A1168802385
:1012E0005B020B431360B5E78C4B19688022D20276
:1012F0000A431A601968802252020A431A60A9E759
:10130000FFF7AEFA0700854B1B689B03BDD5FFF7BF
:10131000A7FAC01B6428F6D90320DBE1002EC4D154
:101320007E4A1268520702D5002B00D1D6E17B4ECF
:1013300072687D490A40216909020A437260326875
:1013400009218A4313433360FFF700FFF268120953
:101350000F231340754AD35CD840754B1860754B0A
:101360001868FFF735FA002800D0B3E12368DB06E0
:101370002DD5002D60D1694B1B689B0503D5A36952
:10138000002B00D1ACE1654A53686B490B40216AE0
:101390000B43536053681B021B0AE16909060B43A8
:1013A0005360216A490B013180231B028B40D168B5
:1013B00009090F220A405D498A5CD3405C4A1360E8
:1013C0005C4B1868FFF704FA002800D082E123681C
:1013D0001B077DD56369002B67D0504A136D01212F
:1013E0000B431365FFF73CFA06004C4B1B6D9B0744
:1013F0006ED4FFF735FA801B0228F6D9032069E185
:1014000046494B68484A13402269120213434B6015
:10141000ACE7424A136801218B431360FFF720FABF
:1014200006003E4B1B685B07A0D5FFF719FA801B2F
:101430000228F6D903204DE1A369002B22D0374AB8
:10144000116880235B000B431360FFF709FA060065
:10145000324B1B689B0506D4FFF702FA801B02285B
:10146000F6D9032036E12D4A536833490B40216AEF
:101470000B43536053681B021B0AE16909060B43C7
:101480005360A4E7254A13682C490B401360FFF70B
:10149000E7F90600214B1B689B0598D5FFF7E0F99B
:1014A000801B0228F6D9032014E11C4A136D012188
:1014B0008B431365FFF7D4F90600184B1B6D9B0790
:1014C00006D5FFF7CDF9801B0228F6D9032001E1EC
:1014D00023685B0700D48EE0104B9B6BDB001BD4B2
:1014E0000E4A916B80235B050B4393630126144BDB
:1014F0001B68DB0528D5A36880225200934237D0B1
:10150000002B4DD1054B1A6D0C490A401A651A6D16
:101510000C490A401A6531E00026E8E70010024055
:10152000FFFFFEFFFFFFFBFFFFE0FFFF841D000842
:101530000000002008000020FF1FFFFFFFFEFFFF4C
:1015400000700040FFFBFFFF6B4A116880235B00C7
:101550000B431360FFF784F90700674B1B68DB053B
:10156000C9D4FFF77DF9C01B6428F6D90320B1E088
:10157000624A116D80235B000B431365A368002B47
:1015800028D0FFF76DF907005C4B1B6D9B0530D42D
:10159000FFF766F9C01B5A4B9842F5D9032099E032
:1015A000A022D200934209D0544B1A6D55490A40EB
:1015B0001A651A6D54490A401A65DFE74F4B196DD9
:1015C000013AFF3A0A431A65196D802252000A4314
:1015D0001A65D3E7FFF744F90700484B1B6D9B05DD
:1015E00007D5FFF73DF9C01B454B9842F5D90320BD
:1015F00070E0012E1AD0636A002B00D172E00C2D2E
:101600004FD0022B18D03D4A136840490B4013605D
:10161000FFF726F90400394B1B689B013FD5FFF704
:101620001FF9001B0228F6D9032053E0334A936BBD
:1016300037490B409363DEE7304A136833490B4068
:101640001360FFF70DF905002C4B1B689B0106D5B5
:10165000FFF706F9401B0228F6D903203AE0274994
:10166000CB682C4A1340A26AE06A0243206B024313
:101670001343CB600A6880235B0413430B60FFF7BE
:10168000EFF804001D4B1B689B0106D4FFF7E8F838
:10169000001B0228F6D903201CE000201AE00020DD
:1016A00018E0012B20D0154BDA6880235B02134031
:1016B000A16A8B421AD1F0239B031340E16A8B424B
:1016C00016D1C0231B041A40236B9A4212D100206A
:1016D00000E0012003B0F0BD0120FBE70120F9E7A5
:1016E0000120F7E70020F5E70120F3E70120F1E70B
:1016F0000120EFE70120EDE70070004000100240FC
:1017000088130000FFFEFFFFFFFBFFFFFFFFFFFE50
:10171000FFFFFFEFFFFF02FF70B505000C00002880
:1017200000D1D1E06A4B1A68012313408B4219D3D0
:101730002B689B0706D5674AD368F0218B43A968BD
:101740000B43D3602B68DB077BD56B68022B20D063
:10175000032B40D0012B44D05E4A126892051DD461
:10176000012099E05A4A136801218B4323431360F7
:10177000FFF776F80600564B1A6801231340A34280
:10178000D6D0FFF76DF8801B534A9042F3D903205F
:1017900082E0504A1268920300D497E04D49CA682B
:1017A000032082431343CB60FFF75AF806006B68AF
:1017B000022B1CD0032B28D0012B34D0454BDB68E7
:1017C0000C221A423DD0FFF74BF8801B424B984247
:1017D000F4D9032060E03F4A12689201DED4012070
:1017E0005AE03C4A12685207D8D4012054E0394BE1
:1017F000DA680C231340082B23D0FFF731F8801B45
:10180000354A9042F3D9032046E0324BDA680C2384
:1018100013400C2B15D0FFF723F8801B2E4B98425A
:10182000F3D9032038E02B4BDA680C231340042B48
:1018300007D0FFF715F8801B274B9842F3D90320F8
:101840002AE0234B1A6801231340A34225D82B68B2
:101850005B0706D51F4AD36820490B40E9680B4354
:10186000D3602B681B0707D51A49CB681C4A134065
:101870002A69D2001343CB60FFF768FC154BDA6886
:1018800012090F231340174AD35CD840164B186037
:10189000164B1868FEF79CFF70BD0D4A13680121B6
:1018A0008B4323431360FEF7DBFF0600084B1A68E7
:1018B00001231340A342CAD0FEF7D2FF801B064B80
:1018C0009842F3D90320E7E70120E5E70120E3E7A9
:1018D000002002400010024088130000FFF8FFFFC4
:1018E000FFC7FFFF841D0008000000200800002043
:1018F00070B5040003689B064ED55B4B9B6BDB0009
:1019000074D4594A916B80235B050B439363012682
:10191000564B1B68DB056BD5534B1B686268534005
:10192000C02189030B4205D0C0239B02110019403E
:10193000994271D04C4B196DC0239B02080018408E
:10194000194215D01A40824212D023689B060FD547
:10195000454B1A6D464911401D6D802000032843F8
:101960001865186D434D284018651965D20559D47E
:1019700023689B060ED56368C022920219001140AD
:1019800091425ED038490B6D6268C02080020240EF
:1019900013430B65012E5ED023689B0706D5324AA0
:1019A000D36C0C218B43A1680B43D36423685B0782
:1019B00006D52D4AD36C30490B40E1680B43D36404
:1019C00023681B0706D5284AD36C2C490B40216994
:1019D0000B43D36423681B0643D5234AD36C2849A1
:1019E0000B4061690B43D36400203BE000268FE786
:1019F0001E4A116880235B000B431360FEF730FF23
:101A000005001A4B1B68DB0586D4FEF729FF401B37
:101A10006428F6D9032025E0134B1B689B0389D566
:101A200001201FE0FEF71CFF05000F4B1B6D9B05FF
:101A30009ED4FEF715FF401B124B9842F5D90320A8
:101A400010E009490A6810480240C02080030340A2
:101A500013430B6096E7044A936B0C490B40936366
:101A60009AE7002070BDC0460010024000700040A0
:101A7000FFFFFCFFFFFFF7FFFFF3FFFFFFCFFFFFBD
:101A8000FFFFF3FF88130000FFFFCFFFFFFFFFEF13
:101A900013488546FEF79AFE12480168090E124A5D
:101AA000914205D111481249016012481249016062
:101AB00012481349134A002302E0D458C450043397
:101AC000C4188C42F9D3104A104C002301E0136073
:101AD0000432A242FBD300F025F8FEF7C9FDFEE771
:101AE00000080020040000001F0000003410024025
:101AF0000100000000000140000000000000002084
:101B00000C000020A41D00080C0000209400002000
:101B1000FEE703008218934200D170471970013329
:101B2000F9E7000070B500260C4C0D4D641BA410A5
:101B3000A64209D1002600F013F90A4C0A4D641B95
:101B4000A410A64205D170BDB300EB5898470136EA
:101B5000EEE7B300EB5898470136F2E79C1D00080A
:101B60009C1D0008A01D00089C1D0008F0B5CE4675
:101B70009946030C9C46130447461B0C1D000E009F
:101B800061460404240C80B50700100C4B436543E8
:101B9000414360432C0CC01824188C46A34203D93F
:101BA00080235B029846C444494679435643230C3C
:101BB0002D042D0C8919634424046019C918C0BC74
:101BC000B946B046F0BDC046F0B557464E4645460C
:101BD000DE46E0B504000D009246994683B08B4284
:101BE00030D82DD049465046FEF700FC29000600AB
:101BF0002000FEF7FBFB331A9846203B34D49B466B
:101C000053465A46934042461F00534693401E0097
:101C1000AF423BD8AF4200D179E05B46A41BBD4147
:101C2000002B00DA76E000220023009201930123CA
:101C30005A4693400193012342469340009329E082
:101C40008242CFD900220023009201930C9B002BEB
:101C500001D01C605D600098019903B0F0BCBB46E8
:101C6000B246A946A046F0BD42469B4620239B1A99
:101C70005246DA40414613004A468A40170042461F
:101C80001F43534693401E00AF42C3D90022002396
:101C9000009201934346002BD8D0FB0772081A43E9
:101CA00046467B080EE0AB4201D1A2420CD8A41AF2
:101CB0009D41012024196D410021013E24184D4110
:101CC000002E06D0AB42EED9013E24196D41002E04
:101CD000F8D1009801995B4600196941002B24DB7B
:101CE0002B005A464446D3402A00E2401C005B4683
:101CF0001500002B2ADB26009E40330026004746B5
:101D0000BE403200801A9941009001919EE7A342A3
:101D1000BCD882E74246202300219B1A0022009172
:101D200001920122DA40019285E7424620239B1A64
:101D30002A0046469A402300F340444613432A00B3
:101D4000E2401C005B461500002BD4DA42462F000F
:101D50002023260097409B1ADE403B003343CDE70B
:101D6000F8B5C046F8BC08BC9E467047F8B5C046FA
:081D7000F8BC08BC9E46704758
:101D7800030406080C1018203000000000000000C2
:0C1D880000000000010203040607080927
:081D940034FEFF7F0100000096
:041D9C0069040008CE
:041DA00041040008F2
:0C1DA4000000200001000000040000000E
:0400000508001A9144
:00000001FF
